{
  "transactions": [
    {
      "hash": "0x586e1a685b688560cc8e36078fbeab4947b45c8b356bc6e378427e420f228a42",
      "transactionType": "CALL",
      "contractName": null,
      "contractAddress": "0x6969696969696969696969696969696969696969",
      "function": "deposit()",
      "arguments": [],
      "transaction": {
        "from": "0x37a9b9df87b2cd3fc73a9c0ad10b4aff2d52bcc5",
        "to": "0x6969696969696969696969696969696969696969",
        "gas": "0xb2f5",
        "value": "0x1bc16d674ec80000",
        "input": "0xd0e30db0",
        "nonce": "0x932",
        "chainId": "0x138c5"
      },
      "additionalContracts": [],
      "isFixedGasLimit": false
    },
    {
      "hash": "0x2521c31626190ec916cbad7dfa594c558af26fe103df89da79c3fb13969c5f8e",
      "transactionType": "CALL",
      "contractName": null,
      "contractAddress": "0x6969696969696969696969696969696969696969",
      "function": "approve(address,uint256)",
      "arguments": [
        "0xA65856a4B3F6e50BBC246Ab7ce437FB7E0ec2498",
        "2000000000000000000"
      ],
      "transaction": {
        "from": "0x37a9b9df87b2cd3fc73a9c0ad10b4aff2d52bcc5",
        "to": "0x6969696969696969696969696969696969696969",
        "gas": "0xf858",
        "value": "0x0",
        "input": "0x095ea7b3000000000000000000000000a65856a4b3f6e50bbc246ab7ce437fb7e0ec24980000000000000000000000000000000000000000000000001bc16d674ec80000",
        "nonce": "0x933",
        "chainId": "0x138c5"
      },
      "additionalContracts": [],
      "isFixedGasLimit": false
    },
    {
      "hash": "0xa3e4e687ba900d98e75a78b01335ee81b3a52315d4dab569adf72d478818f29e",
      "transactionType": "CALL",
      "contractName": null,
      "contractAddress": "0xa65856a4b3f6e50bbc246ab7ce437fb7e0ec2498",
      "function": "launchToken(string,string,uint256,uint256,uint256,uint256,uint256)",
      "arguments": [
        "TestToken",
        "TEST",
        "1000000000000000000000000000",
        "1000000000000000000",
        "9900",
        "30",
        "100000"
      ],
      "transaction": {
        "from": "0x37a9b9df87b2cd3fc73a9c0ad10b4aff2d52bcc5",
        "to": "0xa65856a4b3f6e50bbc246ab7ce437fb7e0ec2498",
        "gas": "0x410006",
        "value": "0x0",
        "input": "0xda9a164700000000000000000000000000000000000000000000000000000000000000e000000000000000000000000000000000000000000000000000000000000001200000000000000000000000000000000000000000033b2e3c9fd0803ce80000000000000000000000000000000000000000000000000000000de0b6b3a764000000000000000000000000000000000000000000000000000000000000000026ac000000000000000000000000000000000000000000000000000000000000001e00000000000000000000000000000000000000000000000000000000000186a0000000000000000000000000000000000000000000000000000000000000000954657374546f6b656e000000000000000000000000000000000000000000000000000000000000000000000000000000000000000000000000000000000000045445535400000000000000000000000000000000000000000000000000000000",
        "nonce": "0x934",
        "chainId": "0x138c5"
      },
      "additionalContracts": [
        {
          "transactionType": "CREATE",
          "address": "0x534a5712abbdead810f21f25ee4b035c6396d204",
          "initCode": "0x60c03461008457601f6108d238819003918201601f19168301916001600160401b038311848410176100885780849260209460405283398101031261008457516001600160a01b0381168103610084576080523360a052604051610835908161009d82396080518181816102cb0152610523015260a05181818160b101526102630152f35b5f80fd5b634e487b7160e01b5f52604160045260245ffdfe6080604090808252600480361015610015575f80fd5b5f3560e01c91826361d027b3146102b957508163a8aa1b3114610292578163c45a01551461024f578163c879657214610210578163f417eeee14610083575063f940cc6214610062575f80fd5b3461007f575f36600319011261007f576020906001549051908152f35b5f80fd5b90503461007f576020908160031936011261007f5780356001600160a01b03818116939184900361007f57807f00000000000000000000000000000000000000000000000000000000000000001633036101de575f549081166101ad576001600160a01b03191683175f5583516370a0823160e01b815230928101929092528082602481865afa9182156101a3575f92610152575b7f0f91882b50d9330af0b1d4998e6af7f2eaee90ce7e77ea54fea089af166d021d6060855f888787816001558251948552840152820152a1005b908093925081813d831161019c575b61016b8183610322565b8101031261007f575190917f0f91882b50d9330af0b1d4998e6af7f2eaee90ce7e77ea54fea089af166d021d610118565b503d610161565b84513d5f823e3d90fd5b845162461bcd60e51b8152808401839052600b60248201526a1053149150511657d4d15560aa1b6044820152606490fd5b845162461bcd60e51b8152808401839052600c60248201526b4f4e4c595f464143544f525960a01b6044820152606490fd5b3461007f575f36600319011261007f5768929eee149b4bd212689030825414610244575030815561023f61037b565b389055005b63ab143c065f52601cfd5b823461007f575f36600319011261007f57517f00000000000000000000000000000000000000000000000000000000000000006001600160a01b03168152602090f35b823461007f575f36600319011261007f575f5490516001600160a01b039091168152602090f35b3461007f575f36600319011261007f577f00000000000000000000000000000000000000000000000000000000000000006001600160a01b03168152602090f35b67ffffffffffffffff811161030e57604052565b634e487b7160e01b5f52604160045260245ffd5b90601f8019910116810190811067ffffffffffffffff82111761030e57604052565b9081602091031261007f5751801515810361007f5790565b9081602091031261007f57516001600160a01b038116810361007f5790565b5f80549091906001600160a01b0390811690813b1561007f5760409182519463643cb2b960e11b86526004955f81888183875af180156107f5576107e4575b5083516370a0823160e01b81523087820152602091908281602481875afa9081156107725782916107b7575b50600154808211156107ac57810390811161079957848254169086519163a9059cbb60e01b8352898301526024820152828160448185885af180156107725761077c575b50845163226bf2d160e21b81523088820152858160248185885af1948515610772578291839661073c575b50865163057078af60e51b81529584878b81895afa968715610732578497610703575b5086156106ba578751630dfe168160e01b815285818c818a5afa90811561064e578b918791879161069d575b50975b8915610658578a5163d21220a760e01b815292839182905afa90811561064e578591610621575b50925b871561061a5780975b156106125750945b866105ba575b505083610521575b50507f49d512bf9cb224241c05691e73eb9fab078cf350c7dbcbcf66788f1fc0cc8b0b9495508351928352820152a1565b7f0000000000000000000000000000000000000000000000000000000000000000601452603484905263a9059cbb60601b825282826044601082855af190816001845114161561059d575b50507f49d512bf9cb224241c05691e73eb9fab078cf350c7dbcbcf66788f1fc0cc8b0b95965060345285945f6104f0565b3b153d1710156105ae57868061056c565b6390b8ec18879152601cfd5b16803b1561060e57828660248b838b519586948593630852cd8d60e31b85528401525af1801561060457908391156104e8576105f5906102fa565b61060057815f6104e8565b5080fd5b87513d85823e3d90fd5b8280fd5b9050946104e2565b81976104da565b6106419150863d8811610647575b6106398183610322565b81019061035c565b5f6104ce565b503d61062f565b89513d87823e3d90fd5b8a51630dfe168160e01b815292839182905afa90811561064e578591610680575b50926104d1565b6106979150863d8811610647576106398183610322565b5f610679565b6106b49150823d8411610647576106398183610322565b5f6104a4565b875163d21220a760e01b815285818c818a5afa90811561064e578b91879187916106e6575b50976104a7565b6106fd9150823d8411610647576106398183610322565b5f6106df565b610724919750853d871161072b575b61071c8183610322565b810190610344565b955f610478565b503d610712565b88513d86823e3d90fd5b87809297508193503d831161076b575b6107568183610322565b8101031261060057828151910151945f610455565b503d61074c565b86513d84823e3d90fd5b61079290833d851161072b5761071c8183610322565b505f61042a565b634e487b7160e01b825260118852602482fd5b505050505050509050565b90508281813d83116107dd575b6107ce8183610322565b8101031261007f57515f6103e6565b503d6107c4565b6107ee91506102fa565b5f806103ba565b85513d5f823e3d90fdfea26469706673582212200ee02c4c8b28d5603e2b2214543bc5fa4394fdd8ff36a6cd8f505319a3417ee764736f6c63430008180033000000000000000000000000bfff8b5c308cbb00a114ef2651f9ec7819b69557"
        },
        {
          "transactionType": "CREATE",
          "address": "0xbccc7e28fd1bac3e99f6319644018fe9e7c1c23b",
          "initCode": "0x61016080604052346200020c5760e0816200233380380380916200002482856200022c565b8339810103126200020c576200003a8162000264565b620000486020830162000264565b91620000576040820162000264565b60608201519360808301519360c060a08501519401519182151583036200020c5733608052600280546001600160a01b0319166001600160a01b0384811691821790925560a083905260c09590955261010097885261012096875261014095865260e0849052936200019e575b50505050604051916120b993846200027a853960805184818161053c01526106b0015260a0518481816104290152818161060d015281816108b401528181610d5e01528181610fe501528181611137015281816116850152611c06015260c0518481816101880152818161046c0152818161073d015281816110c3015281816114a10152611d74015260e051848181610583015281816106f6015281816115aa0152611a900152518381816117650152611b3e0152518281816116dd01528181611b630152611b990152518181816102060152611b0a0152f35b602092156200022457505b6004604051809481936318160ddd60e01b8352165afa90811562000219575f91620001dd575b506003555f808080620000c4565b90506020813d60201162000210575b81620001fb602093836200022c565b810103126200020c57515f620001cf565b5f80fd5b3d9150620001ec565b6040513d5f823e3d90fd5b9050620001a9565b601f909101601f19168101906001600160401b038211908210176200025057604052565b634e487b7160e01b5f52604160045260245ffd5b51906001600160a01b03821682036200020c5756fe6080604090808252600480361015610015575f80fd5b5f3560e01c91826306fdde0314611872575081630902f1ac14611821578163095ea7b3146117885781630c1e38471461174e5781630dfe16811461172657816318160ddd146117005781631e2f9931146116c6578163229507461461158e57816323b872dd1461146a578163313ce5671461144f5781633644e51514611398578163378dc3dc1461137a5781636a6278421461107e5781636d9a640a14610c8657816370a0823114610c535781637464fc3d14610c3557816375172a8b14610bf85781637ecebe0014610bc557816389afcb441461083f57816395d89b41146107fc578163975f8f46146107e0578163a9059cbb1461071b578163ae0f15e0146106df578163c45a01551461069c578163c4d66de814610514578163c879657214610458578163d21220a714610415578163d505accf1461022957508063d9f51a43146101ef578063dd62ed3e146101bb5763f29ebf6114610175575f80fd5b346101b7575f3660031901126101b757517f00000000000000000000000000000000000000000000000000000000000000006001600160a01b03168152602090f35b5f80fd5b50346101b757806003193601126101b7576020906101e86101da6118f3565b6101e2611909565b90611c2a565b9051908152f35b50346101b7575f3660031901126101b757602090517f00000000000000000000000000000000000000000000000000000000000000008152f35b82346101b75760e03660031901126101b7576102436118f3565b9061024c611909565b60443591606435926084359160ff831683036101b7576001600160a01b03938416956e22d473030f116ddee9f6b43ac78ba387188319151715610409578151946102958661194f565b600886526704f7369746f204c560c41b6020809701528642116103fd578251911695869465383775081901600e52855f5260c087600c20938454937f8b73c3c69bb8fe3d512ecc4cf759cc79239f7b179b0ffacaa9a75d522b39400f8252848a83017f432403850d0c026bcf6eb0567acc5f7ed78017e4821d92ee99418a1819fb058981528d8985017fc89efdaa54c0f20c7adf612882df0950f5a951637e0307cdcb4c672f298b8bc68152606086019c8d469052608087019330855260a08820602e527f6e71edae12b1b97f4d1f60370fef10105fa2faae0126114a169c64845d6126c988525252898b525260a082015220604e526042602c205f5260ff16865260a435835260c435606052858060805f60015afa90873d51036103f1577f8c5be1e5ebec7d5bd14f71427d1e84f3dd0314c0f7b2291e5b200ac8c7c3b92597989950019055866303faf4f960a51b1790526034602c2055a3005b8963ddafbaef5f52601cfd5b88631a15a3cc5f52601cfd5b87633f68539a5f52601cfd5b82346101b7575f3660031901126101b757517f00000000000000000000000000000000000000000000000000000000000000006001600160a01b03168152602090f35b9050346101b7575f3660031901126101b7577f00000000000000000000000000000000000000000000000000000000000000006001600160a01b031633036104e0576104a261198d565b6001600160701b0380825116906104c160208401928284511690611d6f565b506001546104cb57005b806104db93511691511690611a18565b600155005b6020606492519162461bcd60e51b8352820152600f60248201526e27a7262cafa322a2afa927aaaa22a960891b6044820152fd5b9050346101b7576020806003193601126101b7576105306118f3565b6001600160a01b0392907f00000000000000000000000000000000000000000000000000000000000000008416330361066b57600254848116610632576001600160a01b031916848216176002558291907f00000000000000000000000000000000000000000000000000000000000000001561060a57905b85516318160ddd60e01b81529485928391165afa92831561060157505f926105d3575b6003839055005b90809250813d83116105fa575b6105ea818361196b565b810103126101b757515f806105cc565b503d6105e0565b513d5f823e3d90fd5b507f0000000000000000000000000000000000000000000000000000000000000000906105a9565b855162461bcd60e51b815280840185905260136024820152721053149150511657d253925512505312569151606a1b6044820152606490fd5b5060649184519162461bcd60e51b8352820152600c60248201526b15539055551213d49256915160a21b6044820152fd5b82346101b7575f3660031901126101b757517f00000000000000000000000000000000000000000000000000000000000000006001600160a01b03168152602090f35b82346101b7575f3660031901126101b757602090517f000000000000000000000000000000000000000000000000000000000000000015158152f35b82346101b757806003193601126101b7576107346118f3565b6024359061077b7f00000000000000000000000000000000000000000000000000000000000000006001600160a01b039081169083169081149081156107d6575b506119be565b6387a211a2600c52335f5260209384600c20908154908185116107cb575083900390555f5282600c208181540190558252600c5160601c335f805160206120648339815191528480a35160018152f35b63f4d678b85f52601cfd5b9050301486610775565b82346101b7575f3660031901126101b7576020906101e8611a8e565b82346101b7575f3660031901126101b757805161083b9161081c8261194f565b600882526704f5349544f2d4c560c41b602083015251918291826118ac565b0390f35b9050346101b757602090816003193601126101b75761085c6118f3565b9168929eee149b4bd2126830815414610bb95730815561087a61198d565b9360018060a01b0380600254169587519685886024816370a0823160e01b94858252308c8301525afa978815610baf575f98610b80575b507f000000000000000000000000000000000000000000000000000000000000000090838216908a5198818a5230818b0152888a602481865afa998a15610b76575f9a610b47575b506387a211a29384600c52305f5289600c20546001600160701b0396878c818351169201511661092891611d6f565b956805345cdf77eb68f44c9081549e8f906109439085611a18565b9061094d91611a2b565b9e8f9e61095a9085611a18565b9061096491611a2b565b9d151580610b3e575b15610afb57600c52305f528b600c208054808411610aef57938f8f93908f5f908f95976109c5946109ca998260249d9c03905581815403905582525f80516020612064833981519152309183a3838d60025416611fed565b611fed565b898d886002541690519384809287825230868301525afa928d8415610601578b935f95610abb575b5090602491519586938492835230908301525afa908115610ab1575f91610a80575b610a1e9250611f53565b610a63575b50865191868352858584015216907fdccd412f0b1252819cb1fd330b93224ca42612892bb3f4f789976e6d81936496873392a33890558351928352820152f35b610a77905f5490808260701c169116611a18565b6001555f610a23565b90508782813d8311610aaa575b610a97818361196b565b810103126101b757610a1e915190610a14565b503d610a8d565b8b513d5f823e3d90fd5b9450509183813d8311610ae8575b610ad3818361196b565b810103126101b75791519189918d60246109f2565b503d610ac9565b8563f4d678b85f52601cfd5b8f5162461bcd60e51b81528086018e9052601d60248201527f494e53554646494349454e545f4c49515549444954595f4255524e45440000006044820152606490fd5b508d151561096d565b9099508881813d8311610b6f575b610b5f818361196b565b810103126101b75751985f6108f9565b503d610b55565b8c513d5f823e3d90fd5b9097508581813d8311610ba8575b610b98818361196b565b810103126101b75751965f6108b1565b503d610b8e565b89513d5f823e3d90fd5b8263ab143c065f52601cfd5b82346101b75760203660031901126101b757602090610be26118f3565b6338377508600c525f5281600c20549051908152f35b82346101b7575f3660031901126101b7575f5490516001600160701b038083168252607083901c16602082015260e09190911c6040820152606090f35b82346101b7575f3660031901126101b7576020906001549051908152f35b82346101b75760203660031901126101b757602090610c706118f3565b6387a211a2600c525f5281600c20549051908152f35b82346101b75760603660031901126101b7576001600160a01b0391604435838116929091602480359282359290918686036101b75768929eee149b4bd212689730895414610bb95730895584159283158094611075575b1561103357610cea61198d565b976001600160701b0394858a5116881080611024575b610d0990611a49565b611010575b8780610fdf575b505081600254169085519384926370a0823160e01b908185523084860152848360209889935afa938415610fd5579086915f95610fa4575b5082895180978193825230878301527f0000000000000000000000000000000000000000000000000000000000000000165afa938415610f9a575f94610f6b575b50610d9c88878c51166119f7565b831115610f6457610db9610db389888d51166119f7565b846119f7565b995b858101610dcb8b898351166119f7565b861115610f5d57610de8610de28c8a8451166119f7565b876119f7565b975b8c15801590610f54575b15610f1257610e01611a8e565b612710808802888104821489151715610f00578f90610e2384610e2993611a18565b906119f7565b91818a02918a8304148a151715610f00578392610e53610e65969593610e238f94610e5995611a18565b90611a18565b94511691511690611a18565b906305f5e10091828102928184041490151715610eee5710610ec857505090610e8d91611f53565b825195865285015283015260608201527fd78ad95fa46c994b6551d0da85fc275fe613ce37657fb8d5e3d130840159d82260803392a3389055005b865162461bcd60e51b8152918201859052600190820152604b60f81b6044820152606490fd5b82601185634e487b7160e01b5f52525ffd5b86601189634e487b7160e01b5f52525ffd5b895162461bcd60e51b81528086018990526019818601527f494e53554646494349454e545f494e5055545f414d4f554e54000000000000006044820152606490fd5b50881515610df4565b5f97610dea565b5f99610dbb565b9093508481813d8311610f93575b610f83818361196b565b810103126101b75751928c610d8e565b503d610f79565b87513d5f823e3d90fd5b8281939296503d8311610fce575b610fbc818361196b565b810103126101b757859051938e610d4d565b503d610fb2565b88513d5f823e3d90fd5b611009917f0000000000000000000000000000000000000000000000000000000000000000611fed565b8a87610d15565b61101f87828560025416611fed565b610d0e565b5060208a015186168910610d00565b606490601a84602088519362461bcd60e51b85528401528201527f494e53554646494349454e545f4f55545055545f414d4f554e540000000000006044820152fd5b50861515610cdd565b9050346101b757602091826003193601126101b75761109b6118f3565b9168929eee149b4bd21268903082541461136f573082556001600160a01b03906110ea8583167f00000000000000000000000000000000000000000000000000000000000000008416146119be565b6110f261198d565b9180600254169285519388856024816370a0823160e01b9485825230898301525afa948515610f9a579089915f9661133e575b506024885180958193825230888301527f0000000000000000000000000000000000000000000000000000000000000000165afa918215611334575f92611305575b506001600160701b039161117e83835116866119f7565b9489830198611190858b5116846119f7565b956111a286865116878d511690611d6f565b946805345cdf77eb68f44c9b8c549182155f146112b85750506111cd6111c8898b611a18565b611e6f565b6103e71981019081116112a5579b6103e89283830192831061129a57509261123b928e8e93611240989796556387a211a2600c5261dead5f5280600c20828154019055528d5f5f80516020612064833981519152600c5160601c9280a35b611236821515611a49565b611efb565b611f53565b61127d575b508351918252858201527f4c209b5fc8ad50758f13e2e1088ba56a560dff690a1c6fef26394f4c03821c4f833392a238905551908152f35b611291905f5490808260701c169116611a18565b6001555f611245565b63e5cfe9575f52601cfd5b601183634e487b7160e01b5f525260245ffd5b6112409695949d5061123b935090886112dd6112e66112ed94838f886112dd91611a18565b91511690611a2b565b948c611a18565b808210156112fe57505b809b61122b565b90506112f7565b9091508781813d831161132d575b61131d818361196b565b810103126101b75751905f611167565b503d611313565b86513d5f823e3d90fd5b8281939297503d8311611368575b611356818361196b565b810103126101b757889051945f611125565b503d61134c565b63ab143c065f52601cfd5b82346101b7575f3660031901126101b7576020906003549051908152f35b82346101b7575f3660031901126101b757806704f7369746f204c560c41b60208093516113c48161194f565b60088152015260a081517f8b73c3c69bb8fe3d512ecc4cf759cc79239f7b179b0ffacaa9a75d522b39400f81527f432403850d0c026bcf6eb0567acc5f7ed78017e4821d92ee99418a1819fb0589848201527fc89efdaa54c0f20c7adf612882df0950f5a951637e0307cdcb4c672f298b8bc683820152466060820152306080820152209051908152f35b82346101b7575f3660031901126101b7576020905160128152f35b82346101b75760603660031901126101b7576114846118f3565b61148c611909565b6001600160a01b0390604435906114d18184167f00000000000000000000000000000000000000000000000000000000000000008516811490811561158457506119be565b8360601b6e22d473030f116ddee9f6b43ac78ba3330361153b575b6387a211a217600c5260209586600c20908154908185116107cb575083900390555f5284600c208181540190558452600c5160601c91165f805160206120648339815191528480a35160018152f35b33602052637f5e9f208117600c526034600c20908154918219611561575b5090506114ec565b82851161157857846387a211a29303905588611559565b886313be252b5f52601cfd5b9050301488610775565b82346101b7575f3660031901126101b7576115a761198d565b917f000000000000000000000000000000000000000000000000000000000000000080156116b1576001600160701b0380855116945b82156116a9576020015116905b15611681576002546020906001600160a01b03165b84516318160ddd60e01b815293849182906001600160a01b03165afa918215611677575f92611640575b50926101e89160209461163a611a8e565b92611c67565b9150926020823d60201161166f575b8161165c6020938361196b565b810103126101b757905190926020611629565b3d915061164f565b83513d5f823e3d90fd5b60207f00000000000000000000000000000000000000000000000000000000000000006115ff565b5116906115ea565b6001600160701b0380602086015116946115dd565b82346101b7575f3660031901126101b757602090517f00000000000000000000000000000000000000000000000000000000000000008152f35b82346101b7575f3660031901126101b7576020906805345cdf77eb68f44c549051908152f35b82346101b7575f3660031901126101b75760025490516001600160a01b039091168152602090f35b82346101b7575f3660031901126101b757602090517f00000000000000000000000000000000000000000000000000000000000000008152f35b82346101b757806003193601126101b7576117a16118f3565b602435906001600160a01b0381166e22d473030f116ddee9f6b43ac78ba318821915171561181557602080945052637f5e9f20600c52335f52806034600c20555f52602c5160601c337f8c5be1e5ebec7d5bd14f71427d1e84f3dd0314c0f7b2291e5b200ac8c7c3b925845fa35160018152f35b83633f68539a5f52601cfd5b82346101b7575f3660031901126101b75761183a61198d565b80516020808301519284015193516001600160701b039283168152919092169181019190915263ffffffff9091166040820152606090f35b8390346101b7575f3660031901126101b75761083b916118918261194f565b600882526704f7369746f204c560c41b602083015251918291825b602080825282518183018190529093925f5b8281106118df57505060409293505f838284010152601f8019910116010190565b8181018601518482016040015285016118be565b600435906001600160a01b03821682036101b757565b602435906001600160a01b03821682036101b757565b6060810190811067ffffffffffffffff82111761193b57604052565b634e487b7160e01b5f52604160045260245ffd5b6040810190811067ffffffffffffffff82111761193b57604052565b90601f8019910116810190811067ffffffffffffffff82111761193b57604052565b6040519061199a8261191f565b8160405f546001600160701b0380821684528160701c16602084015260e01c910152565b156119c557565b60405162461bcd60e51b815260206004820152600a602482015269149154d5149250d5115160b21b6044820152606490fd5b91908203918211611a0457565b634e487b7160e01b5f52601160045260245ffd5b81810292918115918404141715611a0457565b8115611a35570490565b634e487b7160e01b5f52601260045260245ffd5b15611a5057565b60405162461bcd60e51b8152602060048201526016602482015275494e53554646494349454e545f4c495155494449545960501b6044820152606490fd5b7f000000000000000000000000000000000000000000000000000000000000000015611c00576002546004906020906001600160a01b03165b6040516318160ddd60e01b815292839182906001600160a01b03165afa908115611bf5575f91611bc3575b506003549080821115611bbb57611b08916119f7565b7f00000000000000000000000000000000000000000000000000000000000000009081811015611b9557610e23611b9292611b8d7f000000000000000000000000000000000000000000000000000000000000000093611b887f0000000000000000000000000000000000000000000000000000000000000000866119f7565b611a18565b611a2b565b90565b50507f000000000000000000000000000000000000000000000000000000000000000090565b50505f611b08565b90506020813d602011611bed575b81611bde6020938361196b565b810103126101b757515f611af2565b3d9150611bd1565b6040513d5f823e3d90fd5b600460207f0000000000000000000000000000000000000000000000000000000000000000611ac7565b906001600160a01b0381166e22d473030f116ddee9f6b43ac78ba314611c6057602052637f5e9f20600c525f526034600c205490565b50505f1990565b91908115611d675781831015611d2857611c8b83611c858382611a18565b936119f7565b61271094850390858211611a04578181029181159183041417850215611d1457849004830192838111611a0457611cc29083611a2b565b03611d2157670de0b6b3a764000090828282029183818404149015170215611d14578280910482810292818404149015170215611d145704816126de9182810292818404149015170215611d14570490565b63ad251c275f526004601cfd5b5050505f90565b9192505081670de0b6b3a76400009182810292818404149015170215611d1457046126de80820290612710928391818404149015170215611d14570490565b505050505f90565b6001547f00000000000000000000000000000000000000000000000000000000000000006001600160a01b0381161580159594919390611e5f5782611db5575b50505050565b611dcb916001600160701b038091169116611a18565b818111611dd9575b80611daf565b611de5611deb91611e6f565b91611e6f565b906805345cdf77eb68f44c54828211611e05575b50611dd3565b610e5383611e12936119f7565b90605a820291808304605a1490151715611a0457606481029080820460641490151715611a0457611e4291611a2b565b80611e4f575b8080611dff565b611e5891611efb565b5f80611e48565b50509050611e6957565b5f600155565b8070ffffffffffffffffffffffffffffffffff1060071b81811c68ffffffffffffffffff1060061b1781811c64ffffffffff1060051b1781811c62ffffff1060041b1760019060b56201000084831c0191831c1b0260121c80830401811c80830401811c80830401811c80830401811c80830401811c80830401811c80830401901c8080920410900390565b6805345cdf77eb68f44c805490838201918210611f4657556387a211a2600c525f526020600c20818154019055602052600c5160601c5f5f80516020612064833981519152602080a3565b63e5cfe9575f526004601cfd5b7f1c411e9a96e071241c2f21f7726b17ae89e3cab4c78be50e062b03a9fffbbad191611f89611f8360409361203e565b9161203e565b90825191611f968361191f565b6001600160701b038092169283815282821660208201528463ffffffff42169101528263ffffffff60e01b4260e01b16916001600160701b0360701b9060701b161717805f55835192835260701c166020820152a1565b919060145260345263a9059cbb60601b5f5260205f6044601082855af1908160015f51141615612020575b50505f603452565b3b153d171015612031575f80612018565b6390b8ec185f526004601cfd5b600160701b811015612056576001600160701b031690565b6335278d125f526004601cfdfeddf252ad1be2c89b69c2b068fc378daa952ba7f163c4a11628f55a4df523b3efa2646970667358221220b34afcaa0116115caa5dadf3499fc75f93dbc481fa5b9fb9b3519e9b8c43aa9964736f6c6343000818003300000000000000000000000000000000000000000000000000000000000000000000000000000000000000006969696969696969696969696969696969696969000000000000000000000000534a5712abbdead810f21f25ee4b035c6396d20400000000000000000000000000000000000000000000000000000000000026ac000000000000000000000000000000000000000000000000000000000000001e00000000000000000000000000000000000000000000000000000000000186a00000000000000000000000000000000000000000000000000000000000000001"
        },
        {
          "transactionType": "CREATE",
          "address": "0x07f51421484b12f52ae4b38d91566bfd7ff24877",
          "initCode": "0x6080604052346200037c5762000d9c803803806200001d8162000380565b9283398101906080818303126200037c5780516001600160401b03908181116200037c57836200004f918401620003a6565b60209384840151908382116200037c576200006c918501620003a6565b604084015160609094015192906001600160a01b03841684036200037c5782518281116200029a575f54906001948583811c9316801562000371575b898410146200027b578190601f938481116200031e575b508990848311600114620002ba575f92620002ae575b50505f19600383901b1c191690851b175f555b81519283116200029a578354918483811c931680156200028f575b888410146200027b57828285941162000226575b5087918311600114620001c2575f92620001b6575b50505f19600383901b1c191690821b1790555b6805345cdf77eb68f44c805490838201918210620001a957556387a211a2600c525f5281600c2081815401905581525f7fddf252ad1be2c89b69c2b068fc378daa952ba7f163c4a11628f55a4df523b3ef600c5160601c9280a36040516109859081620004178239f35b63e5cfe9575f526004601cfd5b015190505f806200012c565b90849350601f19831691845f52885f20925f5b8a8282106200020f5750508411620001f6575b505050811b0190556200013f565b01515f1960f88460031b161c191690555f8080620001e8565b8385015186558897909501949384019301620001d5565b90919250845f52875f208380860160051c8201928a871062000271575b91869588929594930160051c01915b8281106200026257505062000117565b5f815586955087910162000252565b9250819262000243565b634e487b7160e01b5f52602260045260245ffd5b92607f169262000103565b634e487b7160e01b5f52604160045260245ffd5b015190505f80620000d5565b90879350601f198316915f80528b5f20925f5b8d828210620003075750508411620002ee575b505050811b015f55620000e8565b01515f1960f88460031b161c191690555f8080620002e0565b8385015186558b97909501949384019301620002cd565b9091505f8052895f208480850160051c8201928c861062000367575b918991869594930160051c01915b82811062000358575050620000bf565b5f815585945089910162000348565b925081926200033a565b92607f1692620000a8565b5f80fd5b6040519190601f01601f191682016001600160401b038111838210176200029a57604052565b919080601f840112156200037c5782516001600160401b0381116200029a57602090620003dc601f8201601f1916830162000380565b928184528282870101116200037c575f5b818110620004025750825f9394955001015290565b8581018301518482018401528201620003ed56fe604060808152600480361015610013575f80fd5b5f3560e01c90816306fdde0314610779578163095ea7b3146106e057816318160ddd146106ba57816323b872dd146105c6578163313ce567146105ab5781633644e5151461052457816342966c68146104b457816370a08231146104815781637ecebe001461044e57816395d89b411461032c578163a9059cbb146102a1578163d505accf146100e3575063dd62ed3e146100ac575f80fd5b346100df57806003193601126100df576020906100d86100ca6107e4565b6100d26107fa565b90610912565b9051908152f35b5f80fd5b82346100df5760e03660031901126100df576100fd6107e4565b906101066107fa565b9060443592606435936084359260ff841684036100df576001600160a01b03948516956e22d473030f116ddee9f6b43ac78ba3871883191517156102955761014c610810565b948551602080970120908242116102895760c0978451961697889665383775081901600e52875f5288600c2094855480957f8b73c3c69bb8fe3d512ecc4cf759cc79239f7b179b0ffacaa9a75d522b39400f84528b84019081528d8985017fc89efdaa54c0f20c7adf612882df0950f5a951637e0307cdcb4c672f298b8bc68152606086019c8d469052608087019330855260a08820602e527f6e71edae12b1b97f4d1f60370fef10105fa2faae0126114a169c64845d6126c988525252898b525260a082015220604e526042602c205f5260ff16865260a435835260c435606052858060805f60015afa90873d510361027d577f8c5be1e5ebec7d5bd14f71427d1e84f3dd0314c0f7b2291e5b200ac8c7c3b92597989950019055866303faf4f960a51b1790526034602c2055a3005b8963ddafbaef5f52601cfd5b89631a15a3cc5f52601cfd5b87633f68539a5f52601cfd5b82346100df57806003193601126100df576102ba6107e4565b602435906387a211a2600c52335f5260209384600c2090815490818511610321575083900390555f5282600c208181540190558252600c5160601c337fddf252ad1be2c89b69c2b068fc378daa952ba7f163c4a11628f55a4df523b3ef8480a35160018152f35b63f4d678b85f52601cfd5b82346100df575f3660031901126100df578051905f60018054908160011c9060018316928315610444575b60209384841081146104315783885290811561041557506001146103bf575b505050829003601f01601f191682019267ffffffffffffffff8411838510176103ac57508291826103a892528261079d565b0390f35b604190634e487b7160e01b5f525260245ffd5b60015f908152929350837fb10e2d527612073b26eecdfd717e6a320cf44b4afac2b0732d9fcbe2b7fa0cf65b8385106104015750505050830101848080610376565b8054888601830152930192849082016103eb565b60ff1916878501525050151560051b8401019050848080610376565b602289634e487b7160e01b5f525260245ffd5b91607f1691610357565b82346100df5760203660031901126100df5760209061046b6107e4565b6338377508600c525f5281600c20549051908152f35b82346100df5760203660031901126100df5760209061049e6107e4565b6387a211a2600c525f5281600c20549051908152f35b346100df5760203660031901126100df578035906387a211a2600c52335f526020600c2090815490818411610321575082900390556805345cdf77eb68f44c8181540390555f525f337fddf252ad1be2c89b69c2b068fc378daa952ba7f163c4a11628f55a4df523b3ef602083a3005b82346100df575f3660031901126100df5760209060a0610542610810565b8381519101208251907f8b73c3c69bb8fe3d512ecc4cf759cc79239f7b179b0ffacaa9a75d522b39400f8252848201527fc89efdaa54c0f20c7adf612882df0950f5a951637e0307cdcb4c672f298b8bc683820152466060820152306080820152209051908152f35b82346100df575f3660031901126100df576020905160128152f35b82346100df5760603660031901126100df576105e06107e4565b6105e86107fa565b604435908260601b6e22d473030f116ddee9f6b43ac78ba33303610671575b6387a211a217600c5260209485600c2090815490818511610321575083900390555f52600c8481208054830190559084525160601c906001600160a01b03167fddf252ad1be2c89b69c2b068fc378daa952ba7f163c4a11628f55a4df523b3ef8480a35160018152f35b33602052637f5e9f208117600c526034600c20908154918219610697575b509050610607565b8285116106ae57846387a211a2930390558761068f565b876313be252b5f52601cfd5b82346100df575f3660031901126100df576020906805345cdf77eb68f44c549051908152f35b82346100df57806003193601126100df576106f96107e4565b602435906001600160a01b0381166e22d473030f116ddee9f6b43ac78ba318821915171561076d57602080945052637f5e9f20600c52335f52806034600c20555f52602c5160601c337f8c5be1e5ebec7d5bd14f71427d1e84f3dd0314c0f7b2291e5b200ac8c7c3b925845fa35160018152f35b83633f68539a5f52601cfd5b82346100df575f3660031901126100df576103a890610796610810565b9051918291825b602080825282518183018190529093925f5b8281106107d057505060409293505f838284010152601f8019910116010190565b8181018601518482016040015285016107af565b600435906001600160a01b03821682036100df57565b602435906001600160a01b03821682036100df57565b604051905f805460018160011c9060018316928315610908575b60209384841081146108f4578388529081156108d85750600114610884575b505050829003601f01601f1916820167ffffffffffffffff81118382101761087057604052565b634e487b7160e01b5f52604160045260245ffd5b5f808052929350837f290decd9548b62a8d60345a988386fc84ba6bc95484008f6362f93160ef3e5635b8385106108c457505050508301015f8080610849565b8054888601830152930192849082016108ae565b60ff1916878501525050151560051b84010190505f8080610849565b634e487b7160e01b5f52602260045260245ffd5b91607f169161082a565b906001600160a01b0381166e22d473030f116ddee9f6b43ac78ba31461094857602052637f5e9f20600c525f526034600c205490565b50505f199056fea26469706673582212201139f12d0b2dc498254f7b920ead55793c5e5288d2cc59b0e83d1456e45744d964736f6c63430008180033000000000000000000000000000000000000000000000000000000000000008000000000000000000000000000000000000000000000000000000000000000c00000000000000000000000000000000000000000033b2e3c9fd0803ce8000000000000000000000000000000bccc7e28fd1bac3e99f6319644018fe9e7c1c23b000000000000000000000000000000000000000000000000000000000000000954657374546f6b656e000000000000000000000000000000000000000000000000000000000000000000000000000000000000000000000000000000000000045445535400000000000000000000000000000000000000000000000000000000"
        }
      ],
      "isFixedGasLimit": false
    },
    {
      "hash": "0xda180a9cee33aeb5e41abe472c93c227570b0cabcde9df3c506e2a426ef6b370",
      "transactionType": "CALL",
      "contractName": null,
      "contractAddress": "0x6969696969696969696969696969696969696969",
      "function": "approve(address,uint256)",
      "arguments": [
        "0x6Fc510B9c44C3be9Fe2697DCeB9344306B8b6a39",
        "1000000000000000000"
      ],
      "transaction": {
        "from": "0x37a9b9df87b2cd3fc73a9c0ad10b4aff2d52bcc5",
        "to": "0x6969696969696969696969696969696969696969",
        "gas": "0xf858",
        "value": "0x0",
        "input": "0x095ea7b30000000000000000000000006fc510b9c44c3be9fe2697dceb9344306b8b6a390000000000000000000000000000000000000000000000000de0b6b3a7640000",
        "nonce": "0x935",
        "chainId": "0x138c5"
      },
      "additionalContracts": [],
      "isFixedGasLimit": false
    },
    {
      "hash": "0x8036b756a09d7a17e7821f1b39570abde62e161d24c7f9cbf1b9efd13498731d",
      "transactionType": "CALL",
      "contractName": null,
      "contractAddress": "0x6fc510b9c44c3be9fe2697dceb9344306b8b6a39",
      "function": "swapExactETHForTokens(address,uint256,address,uint256)",
      "arguments": [
        "0xbCcc7E28fd1bAC3E99f6319644018FE9e7C1C23b",
        "1",
        "0x37A9B9Df87B2cd3fC73A9C0Ad10B4Aff2D52bCc5",
        "1754423308"
      ],
      "transaction": {
        "from": "0x37a9b9df87b2cd3fc73a9c0ad10b4aff2d52bcc5",
        "to": "0x6fc510b9c44c3be9fe2697dceb9344306b8b6a39",
        "gas": "0x2ed27",
        "value": "0xde0b6b3a7640000",
        "input": "0x70878926000000000000000000000000bccc7e28fd1bac3e99f6319644018fe9e7c1c23b000000000000000000000000000000000000000000000000000000000000000100000000000000000000000037a9b9df87b2cd3fc73a9c0ad10b4aff2d52bcc5000000000000000000000000000000000000000000000000000000006892600c",
        "nonce": "0x936",
        "chainId": "0x138c5"
      },
      "additionalContracts": [],
      "isFixedGasLimit": false
    },
    {
      "hash": "0xd6ed55bead6dfeb101caac77a3de7841c52ced3cccc8f5db3bd4a6beb633c103",
      "transactionType": "CALL",
      "contractName": "FeeRouter",
      "contractAddress": "0x534a5712abbdead810f21f25ee4b035c6396d204",
      "function": "collectFees()",
      "arguments": [],
      "transaction": {
        "from": "0x37a9b9df87b2cd3fc73a9c0ad10b4aff2d52bcc5",
        "to": "0x534a5712abbdead810f21f25ee4b035c6396d204",
        "gas": "0x3b0c9",
        "value": "0x0",
        "input": "0xc8796572",
        "nonce": "0x937",
        "chainId": "0x138c5"
      },
      "additionalContracts": [],
      "isFixedGasLimit": false
    }
  ],
  "receipts": [
    {
      "status": "0x1",
      "cumulativeGasUsed": "0xbbdf7",
      "logs": [
        {
          "address": "0x6969696969696969696969696969696969696969",
          "topics": [
            "0xddf252ad1be2c89b69c2b068fc378daa952ba7f163c4a11628f55a4df523b3ef",
            "0x0000000000000000000000000000000000000000000000000000000000000000",
            "0x00000000000000000000000037a9b9df87b2cd3fc73a9c0ad10b4aff2d52bcc5"
          ],
          "data": "0x0000000000000000000000000000000000000000000000001bc16d674ec80000",
          "blockHash": "0xb34b69777064585d9da8b3c260a2812f590ff0baf1fd2908e9aa8ca6698e3e0e",
          "blockNumber": "0x76b839",
          "blockTimestamp": "0x68925fb8",
          "transactionHash": "0x586e1a685b688560cc8e36078fbeab4947b45c8b356bc6e378427e420f228a42",
          "transactionIndex": "0x1",
          "logIndex": "0x16",
          "removed": false
        }
      ],
      "logsBloom": "0x00000000000000000000000000000000000000000000000000000000000000000000000000000000000000000000000000000000000000000000000000000000000000000000000000000008000000000000000000000000000000000000000000000000020000000000000000000800000000000010000002000010000000000000000000000000000000000000000000000000000000000000000000000000000000000000000000800000000000000000000000000000000000000000000000000002000000000000000000000000000000000000000000000004000020101000000000000000000000000000000000000000000000000000000000000000",
      "type": "0x2",
      "transactionHash": "0x586e1a685b688560cc8e36078fbeab4947b45c8b356bc6e378427e420f228a42",
      "transactionIndex": "0x1",
      "blockHash": "0xb34b69777064585d9da8b3c260a2812f590ff0baf1fd2908e9aa8ca6698e3e0e",
      "blockNumber": "0x76b839",
      "gasUsed": "0x8190",
      "effectiveGasPrice": "0x4a817c807",
      "from": "0x37a9b9df87b2cd3fc73a9c0ad10b4aff2d52bcc5",
      "to": "0x6969696969696969696969696969696969696969",
      "contractAddress": null
    },
    {
      "status": "0x1",
      "cumulativeGasUsed": "0xc71c4",
      "logs": [
        {
          "address": "0x6969696969696969696969696969696969696969",
          "topics": [
            "0x8c5be1e5ebec7d5bd14f71427d1e84f3dd0314c0f7b2291e5b200ac8c7c3b925",
            "0x00000000000000000000000037a9b9df87b2cd3fc73a9c0ad10b4aff2d52bcc5",
            "0x000000000000000000000000a65856a4b3f6e50bbc246ab7ce437fb7e0ec2498"
          ],
          "data": "0x0000000000000000000000000000000000000000000000001bc16d674ec80000",
          "blockHash": "0xb34b69777064585d9da8b3c260a2812f590ff0baf1fd2908e9aa8ca6698e3e0e",
          "blockNumber": "0x76b839",
          "blockTimestamp": "0x68925fb8",
          "transactionHash": "0x2521c31626190ec916cbad7dfa594c558af26fe103df89da79c3fb13969c5f8e",
          "transactionIndex": "0x2",
          "logIndex": "0x17",
          "removed": false
        }
      ],
      "logsBloom": "0x00000008000000000000000000000000000000000000200000000000000000000000000000000000000000000000000000000000000000000000000000200000000000000000000000000000000000000000000000000000000000000000000000000000000800000000000000000000000000000010000002000000000000000000000000000000000000000000000000000000000000000000000000000000020000000000000000800000000000000000000000000000000000000000000000000000000000000000000000000000000000000000000000000004000000101010000000000000000000000000000000000000000000000000000000000000",
      "type": "0x2",
      "transactionHash": "0x2521c31626190ec916cbad7dfa594c558af26fe103df89da79c3fb13969c5f8e",
      "transactionIndex": "0x2",
      "blockHash": "0xb34b69777064585d9da8b3c260a2812f590ff0baf1fd2908e9aa8ca6698e3e0e",
      "blockNumber": "0x76b839",
      "gasUsed": "0xb3cd",
      "effectiveGasPrice": "0x4a817c807",
      "from": "0x37a9b9df87b2cd3fc73a9c0ad10b4aff2d52bcc5",
      "to": "0x6969696969696969696969696969696969696969",
      "contractAddress": null
    },
    {
      "status": "0x1",
      "cumulativeGasUsed": "0x3b80d8",
      "logs": [
        {
          "address": "0x07f51421484b12f52ae4b38d91566bfd7ff24877",
          "topics": [
            "0xddf252ad1be2c89b69c2b068fc378daa952ba7f163c4a11628f55a4df523b3ef",
            "0x0000000000000000000000000000000000000000000000000000000000000000",
            "0x000000000000000000000000bccc7e28fd1bac3e99f6319644018fe9e7c1c23b"
          ],
          "data": "0x0000000000000000000000000000000000000000033b2e3c9fd0803ce8000000",
          "blockHash": "0xb34b69777064585d9da8b3c260a2812f590ff0baf1fd2908e9aa8ca6698e3e0e",
          "blockNumber": "0x76b839",
          "blockTimestamp": "0x68925fb8",
          "transactionHash": "0xa3e4e687ba900d98e75a78b01335ee81b3a52315d4dab569adf72d478818f29e",
          "transactionIndex": "0x3",
          "logIndex": "0x18",
          "removed": false
        },
        {
          "address": "0x6969696969696969696969696969696969696969",
          "topics": [
            "0xddf252ad1be2c89b69c2b068fc378daa952ba7f163c4a11628f55a4df523b3ef",
            "0x00000000000000000000000037a9b9df87b2cd3fc73a9c0ad10b4aff2d52bcc5",
            "0x000000000000000000000000bccc7e28fd1bac3e99f6319644018fe9e7c1c23b"
          ],
          "data": "0x0000000000000000000000000000000000000000000000000de0b6b3a7640000",
          "blockHash": "0xb34b69777064585d9da8b3c260a2812f590ff0baf1fd2908e9aa8ca6698e3e0e",
          "blockNumber": "0x76b839",
          "blockTimestamp": "0x68925fb8",
          "transactionHash": "0xa3e4e687ba900d98e75a78b01335ee81b3a52315d4dab569adf72d478818f29e",
          "transactionIndex": "0x3",
          "logIndex": "0x19",
          "removed": false
        },
        {
          "address": "0xbccc7e28fd1bac3e99f6319644018fe9e7c1c23b",
          "topics": [
            "0xddf252ad1be2c89b69c2b068fc378daa952ba7f163c4a11628f55a4df523b3ef",
            "0x0000000000000000000000000000000000000000000000000000000000000000",
            "0x000000000000000000000000000000000000000000000000000000000000dead"
          ],
          "data": "0x00000000000000000000000000000000000000000000000000000000000003e8",
          "blockHash": "0xb34b69777064585d9da8b3c260a2812f590ff0baf1fd2908e9aa8ca6698e3e0e",
          "blockNumber": "0x76b839",
          "blockTimestamp": "0x68925fb8",
          "transactionHash": "0xa3e4e687ba900d98e75a78b01335ee81b3a52315d4dab569adf72d478818f29e",
          "transactionIndex": "0x3",
          "logIndex": "0x1a",
          "removed": false
        },
        {
          "address": "0xbccc7e28fd1bac3e99f6319644018fe9e7c1c23b",
          "topics": [
            "0xddf252ad1be2c89b69c2b068fc378daa952ba7f163c4a11628f55a4df523b3ef",
            "0x0000000000000000000000000000000000000000000000000000000000000000",
            "0x000000000000000000000000534a5712abbdead810f21f25ee4b035c6396d204"
          ],
          "data": "0x0000000000000000000000000000000000000000000006b2462efe9490d0944c",
          "blockHash": "0xb34b69777064585d9da8b3c260a2812f590ff0baf1fd2908e9aa8ca6698e3e0e",
          "blockNumber": "0x76b839",
          "blockTimestamp": "0x68925fb8",
          "transactionHash": "0xa3e4e687ba900d98e75a78b01335ee81b3a52315d4dab569adf72d478818f29e",
          "transactionIndex": "0x3",
          "logIndex": "0x1b",
          "removed": false
        },
        {
          "address": "0xbccc7e28fd1bac3e99f6319644018fe9e7c1c23b",
          "topics": [
            "0x1c411e9a96e071241c2f21f7726b17ae89e3cab4c78be50e062b03a9fffbbad1"
          ],
          "data": "0x0000000000000000000000000000000000000000033b2e3c9fd0803ce80000000000000000000000000000000000000000000000000000000de0b6b3a7640000",
          "blockHash": "0xb34b69777064585d9da8b3c260a2812f590ff0baf1fd2908e9aa8ca6698e3e0e",
          "blockNumber": "0x76b839",
          "blockTimestamp": "0x68925fb8",
          "transactionHash": "0xa3e4e687ba900d98e75a78b01335ee81b3a52315d4dab569adf72d478818f29e",
          "transactionIndex": "0x3",
          "logIndex": "0x1c",
          "removed": false
        },
        {
          "address": "0xbccc7e28fd1bac3e99f6319644018fe9e7c1c23b",
          "topics": [
            "0x4c209b5fc8ad50758f13e2e1088ba56a560dff690a1c6fef26394f4c03821c4f",
            "0x000000000000000000000000a65856a4b3f6e50bbc246ab7ce437fb7e0ec2498"
          ],
          "data": "0x0000000000000000000000000000000000000000033b2e3c9fd0803ce80000000000000000000000000000000000000000000000000000000de0b6b3a7640000",
          "blockHash": "0xb34b69777064585d9da8b3c260a2812f590ff0baf1fd2908e9aa8ca6698e3e0e",
          "blockNumber": "0x76b839",
          "blockTimestamp": "0x68925fb8",
          "transactionHash": "0xa3e4e687ba900d98e75a78b01335ee81b3a52315d4dab569adf72d478818f29e",
          "transactionIndex": "0x3",
          "logIndex": "0x1d",
          "removed": false
        },
        {
          "address": "0x534a5712abbdead810f21f25ee4b035c6396d204",
          "topics": [
            "0x0f91882b50d9330af0b1d4998e6af7f2eaee90ce7e77ea54fea089af166d021d"
          ],
          "data": "0x000000000000000000000000bccc7e28fd1bac3e99f6319644018fe9e7c1c23b0000000000000000000000000000000000000000000006b2462efe9490d0944c0000000000000000000000000000000000000000000000000000000000000000",
          "blockHash": "0xb34b69777064585d9da8b3c260a2812f590ff0baf1fd2908e9aa8ca6698e3e0e",
          "blockNumber": "0x76b839",
          "blockTimestamp": "0x68925fb8",
          "transactionHash": "0xa3e4e687ba900d98e75a78b01335ee81b3a52315d4dab569adf72d478818f29e",
          "transactionIndex": "0x3",
          "logIndex": "0x1e",
          "removed": false
        },
        {
          "address": "0xa65856a4b3f6e50bbc246ab7ce437fb7e0ec2498",
          "topics": [
            "0xfbc2208107bf7df90abee76bf0fc7ccd04797858f418a4794797239da28cf0a3",
            "0x00000000000000000000000007f51421484b12f52ae4b38d91566bfd7ff24877",
            "0x000000000000000000000000bccc7e28fd1bac3e99f6319644018fe9e7c1c23b",
            "0x000000000000000000000000534a5712abbdead810f21f25ee4b035c6396d204"
          ],
          "data": "0x000000000000000000000000000000000000000000000000000000000000006000000000000000000000000000000000000000000000000000000000000000a00000000000000000000000000000000000000000033b2e3c9fd0803ce8000000000000000000000000000000000000000000000000000000000000000000000954657374546f6b656e000000000000000000000000000000000000000000000000000000000000000000000000000000000000000000000000000000000000045445535400000000000000000000000000000000000000000000000000000000",
          "blockHash": "0xb34b69777064585d9da8b3c260a2812f590ff0baf1fd2908e9aa8ca6698e3e0e",
          "blockNumber": "0x76b839",
          "blockTimestamp": "0x68925fb8",
          "transactionHash": "0xa3e4e687ba900d98e75a78b01335ee81b3a52315d4dab569adf72d478818f29e",
          "transactionIndex": "0x3",
          "logIndex": "0x1f",
          "removed": false
        }
      ],
      "logsBloom": "0x00000008000010000040000080000010000000000000200000400010000021000000000000000001000000002000000000000000000000000000000000000010000000000000200400000008000000000000000000000000000002000080000000000000020800000000000000008800000000000018000002000010000000000000000000000000000004000004000000000000000000080000000020002000200000000000000000800000000010000000000000000000000010000000000010000402000000000000800020020002000000000000001000000004000020101000000000000000240000000000000000000000000000000000020000000002",
      "type": "0x2",
      "transactionHash": "0xa3e4e687ba900d98e75a78b01335ee81b3a52315d4dab569adf72d478818f29e",
      "transactionIndex": "0x3",
      "blockHash": "0xb34b69777064585d9da8b3c260a2812f590ff0baf1fd2908e9aa8ca6698e3e0e",
      "blockNumber": "0x76b839",
      "gasUsed": "0x2f0f14",
      "effectiveGasPrice": "0x4a817c807",
      "from": "0x37a9b9df87b2cd3fc73a9c0ad10b4aff2d52bcc5",
      "to": "0xa65856a4b3f6e50bbc246ab7ce437fb7e0ec2498",
      "contractAddress": null
    },
    {
      "status": "0x1",
      "cumulativeGasUsed": "0x3c34a5",
      "logs": [
        {
          "address": "0x6969696969696969696969696969696969696969",
          "topics": [
            "0x8c5be1e5ebec7d5bd14f71427d1e84f3dd0314c0f7b2291e5b200ac8c7c3b925",
            "0x00000000000000000000000037a9b9df87b2cd3fc73a9c0ad10b4aff2d52bcc5",
            "0x0000000000000000000000006fc510b9c44c3be9fe2697dceb9344306b8b6a39"
          ],
          "data": "0x0000000000000000000000000000000000000000000000000de0b6b3a7640000",
          "blockHash": "0xb34b69777064585d9da8b3c260a2812f590ff0baf1fd2908e9aa8ca6698e3e0e",
          "blockNumber": "0x76b839",
          "blockTimestamp": "0x68925fb8",
          "transactionHash": "0xda180a9cee33aeb5e41abe472c93c227570b0cabcde9df3c506e2a426ef6b370",
          "transactionIndex": "0x4",
          "logIndex": "0x20",
          "removed": false
        }
      ],
      "logsBloom": "0x00000000000000000000000000000000000000000000000000000000000000000000000000000000000000000000000000000000000000000000000000200000000000000000000000000000000000000000000000000000000000000000000000000000000000000000000000000000000000000010000002000000000000000000000000000000000000000000000000000000000000000000000000000000020000000000000000800000000000000200000000000000000000000000000000000000000000000000000000000000000000000000000000000004008000101010000000000000000000000400000000000000000000000000000000000000",
      "type": "0x2",
      "transactionHash": "0xda180a9cee33aeb5e41abe472c93c227570b0cabcde9df3c506e2a426ef6b370",
      "transactionIndex": "0x4",
      "blockHash": "0xb34b69777064585d9da8b3c260a2812f590ff0baf1fd2908e9aa8ca6698e3e0e",
      "blockNumber": "0x76b839",
      "gasUsed": "0xb3cd",
      "effectiveGasPrice": "0x4a817c807",
      "from": "0x37a9b9df87b2cd3fc73a9c0ad10b4aff2d52bcc5",
      "to": "0x6969696969696969696969696969696969696969",
      "contractAddress": null
    },
    {
      "status": "0x1",
      "cumulativeGasUsed": "0x3e5305",
      "logs": [
        {
          "address": "0x6969696969696969696969696969696969696969",
          "topics": [
            "0xddf252ad1be2c89b69c2b068fc378daa952ba7f163c4a11628f55a4df523b3ef",
            "0x0000000000000000000000000000000000000000000000000000000000000000",
            "0x0000000000000000000000006fc510b9c44c3be9fe2697dceb9344306b8b6a39"
          ],
          "data": "0x0000000000000000000000000000000000000000000000000de0b6b3a7640000",
          "blockHash": "0xb34b69777064585d9da8b3c260a2812f590ff0baf1fd2908e9aa8ca6698e3e0e",
          "blockNumber": "0x76b839",
          "blockTimestamp": "0x68925fb8",
          "transactionHash": "0x8036b756a09d7a17e7821f1b39570abde62e161d24c7f9cbf1b9efd13498731d",
          "transactionIndex": "0x5",
          "logIndex": "0x21",
          "removed": false
        },
        {
          "address": "0x6969696969696969696969696969696969696969",
          "topics": [
            "0xddf252ad1be2c89b69c2b068fc378daa952ba7f163c4a11628f55a4df523b3ef",
            "0x0000000000000000000000006fc510b9c44c3be9fe2697dceb9344306b8b6a39",
            "0x000000000000000000000000bccc7e28fd1bac3e99f6319644018fe9e7c1c23b"
          ],
          "data": "0x0000000000000000000000000000000000000000000000000de0b6b3a7640000",
          "blockHash": "0xb34b69777064585d9da8b3c260a2812f590ff0baf1fd2908e9aa8ca6698e3e0e",
          "blockNumber": "0x76b839",
          "blockTimestamp": "0x68925fb8",
          "transactionHash": "0x8036b756a09d7a17e7821f1b39570abde62e161d24c7f9cbf1b9efd13498731d",
          "transactionIndex": "0x5",
          "logIndex": "0x22",
          "removed": false
        },
        {
          "address": "0x07f51421484b12f52ae4b38d91566bfd7ff24877",
          "topics": [
            "0xddf252ad1be2c89b69c2b068fc378daa952ba7f163c4a11628f55a4df523b3ef",
            "0x000000000000000000000000bccc7e28fd1bac3e99f6319644018fe9e7c1c23b",
            "0x00000000000000000000000037a9b9df87b2cd3fc73a9c0ad10b4aff2d52bcc5"
          ],
          "data": "0x00000000000000000000000000000000000000000008309dbfae6bb9a1faee41",
          "blockHash": "0xb34b69777064585d9da8b3c260a2812f590ff0baf1fd2908e9aa8ca6698e3e0e",
          "blockNumber": "0x76b839",
          "blockTimestamp": "0x68925fb8",
          "transactionHash": "0x8036b756a09d7a17e7821f1b39570abde62e161d24c7f9cbf1b9efd13498731d",
          "transactionIndex": "0x5",
          "logIndex": "0x23",
          "removed": false
        },
        {
          "address": "0xbccc7e28fd1bac3e99f6319644018fe9e7c1c23b",
          "topics": [
            "0x1c411e9a96e071241c2f21f7726b17ae89e3cab4c78be50e062b03a9fffbbad1"
          ],
          "data": "0x00000000000000000000000000000000000000000332fd9ee0221483460511bf0000000000000000000000000000000000000000000000001bc16d674ec80000",
          "blockHash": "0xb34b69777064585d9da8b3c260a2812f590ff0baf1fd2908e9aa8ca6698e3e0e",
          "blockNumber": "0x76b839",
          "blockTimestamp": "0x68925fb8",
          "transactionHash": "0x8036b756a09d7a17e7821f1b39570abde62e161d24c7f9cbf1b9efd13498731d",
          "transactionIndex": "0x5",
          "logIndex": "0x24",
          "removed": false
        },
        {
          "address": "0xbccc7e28fd1bac3e99f6319644018fe9e7c1c23b",
          "topics": [
            "0xd78ad95fa46c994b6551d0da85fc275fe613ce37657fb8d5e3d130840159d822",
            "0x0000000000000000000000006fc510b9c44c3be9fe2697dceb9344306b8b6a39",
            "0x00000000000000000000000037a9b9df87b2cd3fc73a9c0ad10b4aff2d52bcc5"
          ],
          "data": "0x00000000000000000000000000000000000000000000000000000000000000000000000000000000000000000000000000000000000000000de0b6b3a764000000000000000000000000000000000000000000000008309dbfae6bb9a1faee410000000000000000000000000000000000000000000000000000000000000000",
          "blockHash": "0xb34b69777064585d9da8b3c260a2812f590ff0baf1fd2908e9aa8ca6698e3e0e",
          "blockNumber": "0x76b839",
          "blockTimestamp": "0x68925fb8",
          "transactionHash": "0x8036b756a09d7a17e7821f1b39570abde62e161d24c7f9cbf1b9efd13498731d",
          "transactionIndex": "0x5",
          "logIndex": "0x25",
          "removed": false
        },
        {
          "address": "0x6fc510b9c44c3be9fe2697dceb9344306b8b6a39",
          "topics": [
            "0xee6fe6361d9c7821cccbff7551fd85fc649f753259a1b3ea7ea766fd3a79ee1f",
            "0x000000000000000000000000bccc7e28fd1bac3e99f6319644018fe9e7c1c23b",
            "0x00000000000000000000000037a9b9df87b2cd3fc73a9c0ad10b4aff2d52bcc5"
          ],
          "data": "0x0000000000000000000000000000000000000000000000000de0b6b3a764000000000000000000000000000000000000000000000008309dbfae6bb9a1faee41",
          "blockHash": "0xb34b69777064585d9da8b3c260a2812f590ff0baf1fd2908e9aa8ca6698e3e0e",
          "blockNumber": "0x76b839",
          "blockTimestamp": "0x68925fb8",
          "transactionHash": "0x8036b756a09d7a17e7821f1b39570abde62e161d24c7f9cbf1b9efd13498731d",
          "transactionIndex": "0x5",
          "logIndex": "0x26",
          "removed": false
        }
      ],
      "logsBloom": "0x00300000000000080000000080000010000000000000000000000010000000000000000000000000000000002000000000000000002000000000000000000000000000000000000000000008000020200000000000000000000000000000000000000000020000000000000000000a00000000000010000002000010000000000000000000000000000000000004000000000000000000080000004000000000000000000000000000800000000010000200000000000000000010000000000010000002000000000000800000000000004000000000001000000004008020101000000000000000200000000400000000000000000000000000000000000000",
      "type": "0x2",
      "transactionHash": "0x8036b756a09d7a17e7821f1b39570abde62e161d24c7f9cbf1b9efd13498731d",
      "transactionIndex": "0x5",
      "blockHash": "0xb34b69777064585d9da8b3c260a2812f590ff0baf1fd2908e9aa8ca6698e3e0e",
      "blockNumber": "0x76b839",
      "gasUsed": "0x21e60",
      "effectiveGasPrice": "0x4a817c807",
      "from": "0x37a9b9df87b2cd3fc73a9c0ad10b4aff2d52bcc5",
      "to": "0x6fc510b9c44c3be9fe2697dceb9344306b8b6a39",
      "contractAddress": null
    },
    {
      "status": "0x1",
      "cumulativeGasUsed": "0x40d907",
      "logs": [
        {
          "address": "0xbccc7e28fd1bac3e99f6319644018fe9e7c1c23b",
          "topics": [
            "0xddf252ad1be2c89b69c2b068fc378daa952ba7f163c4a11628f55a4df523b3ef",
            "0x0000000000000000000000000000000000000000000000000000000000000000",
            "0x000000000000000000000000534a5712abbdead810f21f25ee4b035c6396d204"
          ],
          "data": "0x0000000000000000000000000000000000000000000002743d5778b89ea95025",
          "blockHash": "0xb34b69777064585d9da8b3c260a2812f590ff0baf1fd2908e9aa8ca6698e3e0e",
          "blockNumber": "0x76b839",
          "blockTimestamp": "0x68925fb8",
          "transactionHash": "0xd6ed55bead6dfeb101caac77a3de7841c52ced3cccc8f5db3bd4a6beb633c103",
          "transactionIndex": "0x6",
          "logIndex": "0x27",
          "removed": false
        },
        {
          "address": "0xbccc7e28fd1bac3e99f6319644018fe9e7c1c23b",
          "topics": [
            "0xddf252ad1be2c89b69c2b068fc378daa952ba7f163c4a11628f55a4df523b3ef",
            "0x000000000000000000000000534a5712abbdead810f21f25ee4b035c6396d204",
            "0x000000000000000000000000bccc7e28fd1bac3e99f6319644018fe9e7c1c23b"
          ],
          "data": "0x0000000000000000000000000000000000000000000002743d5778b89ea95025",
          "blockHash": "0xb34b69777064585d9da8b3c260a2812f590ff0baf1fd2908e9aa8ca6698e3e0e",
          "blockNumber": "0x76b839",
          "blockTimestamp": "0x68925fb8",
          "transactionHash": "0xd6ed55bead6dfeb101caac77a3de7841c52ced3cccc8f5db3bd4a6beb633c103",
          "transactionIndex": "0x6",
          "logIndex": "0x28",
          "removed": false
        },
        {
          "address": "0xbccc7e28fd1bac3e99f6319644018fe9e7c1c23b",
          "topics": [
            "0xddf252ad1be2c89b69c2b068fc378daa952ba7f163c4a11628f55a4df523b3ef",
            "0x000000000000000000000000bccc7e28fd1bac3e99f6319644018fe9e7c1c23b",
            "0x0000000000000000000000000000000000000000000000000000000000000000"
          ],
          "data": "0x0000000000000000000000000000000000000000000002743d5778b89ea95025",
          "blockHash": "0xb34b69777064585d9da8b3c260a2812f590ff0baf1fd2908e9aa8ca6698e3e0e",
          "blockNumber": "0x76b839",
          "blockTimestamp": "0x68925fb8",
          "transactionHash": "0xd6ed55bead6dfeb101caac77a3de7841c52ced3cccc8f5db3bd4a6beb633c103",
          "transactionIndex": "0x6",
          "logIndex": "0x29",
          "removed": false
        },
        {
          "address": "0x07f51421484b12f52ae4b38d91566bfd7ff24877",
          "topics": [
            "0xddf252ad1be2c89b69c2b068fc378daa952ba7f163c4a11628f55a4df523b3ef",
            "0x000000000000000000000000bccc7e28fd1bac3e99f6319644018fe9e7c1c23b",
            "0x000000000000000000000000534a5712abbdead810f21f25ee4b035c6396d204"
          ],
          "data": "0x000000000000000000000000000000000000000000dba539d58cac5dbbe94e69",
          "blockHash": "0xb34b69777064585d9da8b3c260a2812f590ff0baf1fd2908e9aa8ca6698e3e0e",
          "blockNumber": "0x76b839",
          "blockTimestamp": "0x68925fb8",
          "transactionHash": "0xd6ed55bead6dfeb101caac77a3de7841c52ced3cccc8f5db3bd4a6beb633c103",
          "transactionIndex": "0x6",
          "logIndex": "0x2a",
          "removed": false
        },
        {
          "address": "0x6969696969696969696969696969696969696969",
          "topics": [
            "0xddf252ad1be2c89b69c2b068fc378daa952ba7f163c4a11628f55a4df523b3ef",
            "0x000000000000000000000000bccc7e28fd1bac3e99f6319644018fe9e7c1c23b",
            "0x000000000000000000000000534a5712abbdead810f21f25ee4b035c6396d204"
          ],
          "data": "0x00000000000000000000000000000000000000000000000007719b6d2eb99f5b",
          "blockHash": "0xb34b69777064585d9da8b3c260a2812f590ff0baf1fd2908e9aa8ca6698e3e0e",
          "blockNumber": "0x76b839",
          "blockTimestamp": "0x68925fb8",
          "transactionHash": "0xd6ed55bead6dfeb101caac77a3de7841c52ced3cccc8f5db3bd4a6beb633c103",
          "transactionIndex": "0x6",
          "logIndex": "0x2b",
          "removed": false
        },
        {
          "address": "0xbccc7e28fd1bac3e99f6319644018fe9e7c1c23b",
          "topics": [
            "0x1c411e9a96e071241c2f21f7726b17ae89e3cab4c78be50e062b03a9fffbbad1"
          ],
          "data": "0x0000000000000000000000000000000000000000025758650a9568258a1bc356000000000000000000000000000000000000000000000000144fd1fa200e60a5",
          "blockHash": "0xb34b69777064585d9da8b3c260a2812f590ff0baf1fd2908e9aa8ca6698e3e0e",
          "blockNumber": "0x76b839",
          "blockTimestamp": "0x68925fb8",
          "transactionHash": "0xd6ed55bead6dfeb101caac77a3de7841c52ced3cccc8f5db3bd4a6beb633c103",
          "transactionIndex": "0x6",
          "logIndex": "0x2c",
          "removed": false
        },
        {
          "address": "0xbccc7e28fd1bac3e99f6319644018fe9e7c1c23b",
          "topics": [
            "0xdccd412f0b1252819cb1fd330b93224ca42612892bb3f4f789976e6d81936496",
            "0x000000000000000000000000534a5712abbdead810f21f25ee4b035c6396d204",
            "0x000000000000000000000000534a5712abbdead810f21f25ee4b035c6396d204"
          ],
          "data": "0x000000000000000000000000000000000000000000dba539d58cac5dbbe94e6900000000000000000000000000000000000000000000000007719b6d2eb99f5b",
          "blockHash": "0xb34b69777064585d9da8b3c260a2812f590ff0baf1fd2908e9aa8ca6698e3e0e",
          "blockNumber": "0x76b839",
          "blockTimestamp": "0x68925fb8",
          "transactionHash": "0xd6ed55bead6dfeb101caac77a3de7841c52ced3cccc8f5db3bd4a6beb633c103",
          "transactionIndex": "0x6",
          "logIndex": "0x2d",
          "removed": false
        },
        {
          "address": "0x07f51421484b12f52ae4b38d91566bfd7ff24877",
          "topics": [
            "0xddf252ad1be2c89b69c2b068fc378daa952ba7f163c4a11628f55a4df523b3ef",
            "0x000000000000000000000000534a5712abbdead810f21f25ee4b035c6396d204",
            "0x0000000000000000000000000000000000000000000000000000000000000000"
          ],
          "data": "0x000000000000000000000000000000000000000000dba539d58cac5dbbe94e69",
          "blockHash": "0xb34b69777064585d9da8b3c260a2812f590ff0baf1fd2908e9aa8ca6698e3e0e",
          "blockNumber": "0x76b839",
          "blockTimestamp": "0x68925fb8",
          "transactionHash": "0xd6ed55bead6dfeb101caac77a3de7841c52ced3cccc8f5db3bd4a6beb633c103",
          "transactionIndex": "0x6",
          "logIndex": "0x2e",
          "removed": false
        },
        {
          "address": "0x6969696969696969696969696969696969696969",
          "topics": [
            "0xddf252ad1be2c89b69c2b068fc378daa952ba7f163c4a11628f55a4df523b3ef",
            "0x000000000000000000000000534a5712abbdead810f21f25ee4b035c6396d204",
            "0x000000000000000000000000bfff8b5c308cbb00a114ef2651f9ec7819b69557"
          ],
          "data": "0x00000000000000000000000000000000000000000000000007719b6d2eb99f5b",
          "blockHash": "0xb34b69777064585d9da8b3c260a2812f590ff0baf1fd2908e9aa8ca6698e3e0e",
          "blockNumber": "0x76b839",
          "blockTimestamp": "0x68925fb8",
          "transactionHash": "0xd6ed55bead6dfeb101caac77a3de7841c52ced3cccc8f5db3bd4a6beb633c103",
          "transactionIndex": "0x6",
          "logIndex": "0x2f",
          "removed": false
        },
        {
          "address": "0x534a5712abbdead810f21f25ee4b035c6396d204",
          "topics": [
            "0x49d512bf9cb224241c05691e73eb9fab078cf350c7dbcbcf66788f1fc0cc8b0b"
          ],
          "data": "0x000000000000000000000000000000000000000000dba539d58cac5dbbe94e6900000000000000000000000000000000000000000000000007719b6d2eb99f5b",
          "blockHash": "0xb34b69777064585d9da8b3c260a2812f590ff0baf1fd2908e9aa8ca6698e3e0e",
          "blockNumber": "0x76b839",
          "blockTimestamp": "0x68925fb8",
          "transactionHash": "0xd6ed55bead6dfeb101caac77a3de7841c52ced3cccc8f5db3bd4a6beb633c103",
          "transactionIndex": "0x6",
          "logIndex": "0x30",
          "removed": false
        }
      ],
      "logsBloom": "0x00000000000000000050000080000010000000000000000000000010000000000000000000000000000000002000000000000000000000000000004000000000000000000000000000000008000000000000000000000000000002000080000000000004020000000000000000000800000000000000000002000010010000000000000000000000000000000104080000000000000000080000000020000000000000000000004000800000000010000000000000000000000010000000000010000002000000000000800000000000000000000104001000000000000020001000000000000000240000000000000000000000000000000000020000000000",
      "type": "0x2",
      "transactionHash": "0xd6ed55bead6dfeb101caac77a3de7841c52ced3cccc8f5db3bd4a6beb633c103",
      "transactionIndex": "0x6",
      "blockHash": "0xb34b69777064585d9da8b3c260a2812f590ff0baf1fd2908e9aa8ca6698e3e0e",
      "blockNumber": "0x76b839",
      "gasUsed": "0x28602",
      "effectiveGasPrice": "0x4a817c807",
      "from": "0x37a9b9df87b2cd3fc73a9c0ad10b4aff2d52bcc5",
      "to": "0x534a5712abbdead810f21f25ee4b035c6396d204",
      "contractAddress": null
    }
  ],
  "libraries": [],
  "pending": [],
  "returns": {},
  "timestamp": 1754423226,
  "chain": 80069,
  "commit": "67736f3"
}