{
  "transactions": [
    {
      "hash": "0x174ed0f31c1c8030fadd30f178841c842c6eaca96a33ce81bf07f51dc30ca600",
      "transactionType": "CALL",
      "contractName": null,
      "contractAddress": "0x6969696969696969696969696969696969696969",
      "function": "deposit()",
      "arguments": [],
      "transaction": {
        "from": "0x37a9b9df87b2cd3fc73a9c0ad10b4aff2d52bcc5",
        "to": "0x6969696969696969696969696969696969696969",
        "gas": "0xb2f5",
        "value": "0x1bc16d674ec80000",
        "input": "0xd0e30db0",
        "nonce": "0x924",
        "chainId": "0x138c5"
      },
      "additionalContracts": [],
      "isFixedGasLimit": false
    },
    {
      "hash": "0xa554af6c27353ba36d4339925a0d295304ea1342b4e10beece236e61aa6e9603",
      "transactionType": "CALL",
      "contractName": null,
      "contractAddress": "0x6969696969696969696969696969696969696969",
      "function": "approve(address,uint256)",
      "arguments": [
        "0xce0BCc4958BE4301e468495Af369430eCDb84476",
        "2000000000000000000"
      ],
      "transaction": {
        "from": "0x37a9b9df87b2cd3fc73a9c0ad10b4aff2d52bcc5",
        "to": "0x6969696969696969696969696969696969696969",
        "gas": "0xf858",
        "value": "0x0",
        "input": "0x095ea7b3000000000000000000000000ce0bcc4958be4301e468495af369430ecdb844760000000000000000000000000000000000000000000000001bc16d674ec80000",
        "nonce": "0x925",
        "chainId": "0x138c5"
      },
      "additionalContracts": [],
      "isFixedGasLimit": false
    },
    {
      "hash": "0x61deb56ac1957e1c22f8ec15ab3689016aa47f555acd8fc49f6346f932496994",
      "transactionType": "CALL",
      "contractName": null,
      "contractAddress": "0xce0bcc4958be4301e468495af369430ecdb84476",
      "function": "launchToken(string,string,uint256,uint256,uint256,uint256,uint256)",
      "arguments": [
        "TestToken",
        "TEST",
        "1000000000000000000000000000",
        "1000000000000000000",
        "9900",
        "30",
        "100000"
      ],
      "transaction": {
        "from": "0x37a9b9df87b2cd3fc73a9c0ad10b4aff2d52bcc5",
        "to": "0xce0bcc4958be4301e468495af369430ecdb84476",
        "gas": "0x44d89e",
        "value": "0x0",
        "input": "0xda9a164700000000000000000000000000000000000000000000000000000000000000e000000000000000000000000000000000000000000000000000000000000001200000000000000000000000000000000000000000033b2e3c9fd0803ce80000000000000000000000000000000000000000000000000000000de0b6b3a764000000000000000000000000000000000000000000000000000000000000000026ac000000000000000000000000000000000000000000000000000000000000001e00000000000000000000000000000000000000000000000000000000000186a0000000000000000000000000000000000000000000000000000000000000000954657374546f6b656e000000000000000000000000000000000000000000000000000000000000000000000000000000000000000000000000000000000000045445535400000000000000000000000000000000000000000000000000000000",
        "nonce": "0x926",
        "chainId": "0x138c5"
      },
      "additionalContracts": [
        {
          "transactionType": "CREATE",
          "address": "0x50093862f0ddc6e1acbfcc941bf097416aa1edc1",
          "initCode": "0x60c03461008457601f610d2438819003918201601f19168301916001600160401b038311848410176100885780849260209460405283398101031261008457516001600160a01b0381168103610084576080523360a052604051610c87908161009d82396080518181816102cb0152610719015260a05181818160b101526102630152f35b5f80fd5b634e487b7160e01b5f52604160045260245ffdfe6080604090808252600480361015610015575f80fd5b5f3560e01c91826361d027b3146102b957508163a8aa1b3114610292578163c45a01551461024f578163c879657214610210578163f417eeee14610083575063f940cc6214610062575f80fd5b3461007f575f36600319011261007f576020906001549051908152f35b5f80fd5b90503461007f576020908160031936011261007f5780356001600160a01b03818116939184900361007f57807f00000000000000000000000000000000000000000000000000000000000000001633036101de575f549081166101ad576001600160a01b03191683175f5583516370a0823160e01b815230928101929092528082602481865afa9182156101a3575f92610152575b7f0f91882b50d9330af0b1d4998e6af7f2eaee90ce7e77ea54fea089af166d021d6060855f888787816001558251948552840152820152a1005b908093925081813d831161019c575b61016b81836102fa565b8101031261007f575190917f0f91882b50d9330af0b1d4998e6af7f2eaee90ce7e77ea54fea089af166d021d610118565b503d610161565b84513d5f823e3d90fd5b845162461bcd60e51b8152808401839052600b60248201526a1053149150511657d4d15560aa1b6044820152606490fd5b845162461bcd60e51b8152808401839052600c60248201526b4f4e4c595f464143544f525960a01b6044820152606490fd5b3461007f575f36600319011261007f5768929eee149b4bd212689030825414610244575030815561023f610391565b389055005b63ab143c065f52601cfd5b823461007f575f36600319011261007f57517f00000000000000000000000000000000000000000000000000000000000000006001600160a01b03168152602090f35b823461007f575f36600319011261007f575f5490516001600160a01b039091168152602090f35b3461007f575f36600319011261007f577f00000000000000000000000000000000000000000000000000000000000000006001600160a01b03168152602090f35b90601f8019910116810190811067ffffffffffffffff82111761031c57604052565b634e487b7160e01b5f52604160045260245ffd5b51906001600160701b038216820361007f57565b9081602091031261007f57516001600160a01b038116810361007f5790565b9081602091031261007f5751801515810361007f5790565b919082604091031261007f576020825192015190565b5f805460408051630240bc6b60e21b81526001600160a01b03946004949093861691906060828781865afa9182156101a3575f905f93610bfa575b506001600160701b039283169216828102928115918404141715610be7578351637464fc3d60e01b81526020929083818981885afa908115610bdd575f91610bb0575b508015918215610ba5575b5050610b9c5783516318160ddd60e01b81529282848881845afa938415610b92575f94610b63575b508451630dfe168160e01b808252949084818a81865afa9081156108145791858a928c95945f91610b46575b5060248a51809e8193886370a0823160e01b98898552840152165afa8015610977578a9b5f9b999a9b91610b15575b508951878163d21220a760e01b9b8c825281885afa9081156108c057858e888e8c945f96610aef575b5090602492915195869485938b8552840152165afa9081156108c0575f91610ac2575b5080821015610aba5750905b600560068202916006818404149015170215610aae5760058082049106151501908015610aa257808204910615150160018101809111610a8f578851828152308c8201528681602481875afa90811561093b579082915f91610a5e575b5010610a2857885163a9059cbb60e01b8082526001600160a01b038516828e0190815260208101939093529493929187908290819060400103815f875af1801561093b57610a0b575b50885163226bf2d160e21b808252308d83015294908a816024815f885af180156108c0576109ef575b508951918252308c8301528682602481865afa91821561093b575f926109c0575b50600154808311156109b157820391821161099e575f548a5191825284166001600160a01b03168c820190815260208101929092529086908290819060400103815f865af1801561085a57610981575b508751928352308a84015287836024815f855af1908115610977575f935f92610945575b50885163057078af60e51b81529786898d81855afa98891561093b575f9961090c575b5088156108ca57895188815287818e81865afa9081156108c057908892915f916108a3575b50985b8a1561086457508c8b518094819382525afa90811561085a575f9161082d575b50925b87156108265780975b1561081e5750945b866107b0575b505083610717575b50507f49d512bf9cb224241c05691e73eb9fab078cf350c7dbcbcf66788f1fc0cc8b0b9495508351928352820152a1565b7f0000000000000000000000000000000000000000000000000000000000000000601452603484905263a9059cbb60601b825282826044601082855af1908160018451141615610793575b50507f49d512bf9cb224241c05691e73eb9fab078cf350c7dbcbcf66788f1fc0cc8b0b95965060345285945f6106e6565b3b153d1710156107a4578680610762565b6390b8ec18879152601cfd5b16803b1561007f575f8660248b838b519586948593630852cd8d60e31b85528401525af18015610814576107e5575b806106de565b90915067ffffffffffffffff81116108015785525f905f6107df565b604188634e487b7160e01b5f525260245ffd5b87513d5f823e3d90fd5b9050946106d8565b81976106d0565b61084d9150863d8811610853575b61084581836102fa565b810190610344565b5f6106c4565b503d61083b565b89513d5f823e3d90fd5b90508c8b518094819382525afa90811561085a575f91610886575b50926106c7565b61089d9150863d88116108535761084581836102fa565b5f61087f565b6108ba9150833d85116108535761084581836102fa565b5f6106a1565b8b513d5f823e3d90fd5b895181815287818e81865afa9081156108c057908892915f916108ef575b50986106a4565b6109069150833d85116108535761084581836102fa565b5f6108e8565b61092d919950873d8911610934575b61092581836102fa565b810190610363565b975f61067c565b503d61091b565b8a513d5f823e3d90fd5b9093506109689150883d8a11610970575b61096081836102fa565b81019061037b565b90925f610659565b503d610956565b88513d5f823e3d90fd5b61099790863d88116109345761092581836102fa565b505f610635565b60118c634e487b7160e01b5f525260245ffd5b50505050505050505050509050565b9091508681813d83116109e8575b6109d881836102fa565b8101031261007f5751905f6105e5565b503d6109ce565b610a05908b3d8d116109705761096081836102fa565b506105c4565b610a2190873d89116109345761092581836102fa565b505f61059b565b885162461bcd60e51b8152808c01879052601060248201526f0524f555445525f4841535f4e4f5f4c560841b6044820152606490fd5b809250888092503d8311610a88575b610a7781836102fa565b8101031261007f578190515f610552565b503d610a6d565b60118b634e487b7160e01b5f525260245ffd5b8b6365244e4e5f52601cfd5b8b63ad251c275f52601cfd5b9050906104f5565b90508781813d8311610ae8575b610ad981836102fa565b8101031261007f57515f6104e9565b503d610acf565b60249392919650610b0c90863d88116108535761084581836102fa565b959091926104c6565b809950878092503d8311610b3f575b610b2e81836102fa565b8101031261007f578a97515f61049d565b503d610b24565b610b5d9150823d84116108535761084581836102fa565b5f61046e565b9093508281813d8311610b8b575b610b7b81836102fa565b8101031261007f5751925f610442565b503d610b71565b85513d5f823e3d90fd5b50505050915050565b111590505f8061041a565b90508381813d8311610bd6575b610bc781836102fa565b8101031261007f57515f61040f565b503d610bbd565b86513d5f823e3d90fd5b601186634e487b7160e01b5f525260245ffd5b9250506060823d606011610c49575b81610c16606093836102fa565b8101031261007f57610c2782610330565b84610c3460208501610330565b93015163ffffffff81160361007f575f6103cc565b3d9150610c0956fea26469706673582212204edcec1d63bba4d55ff59723c4f4f640663bd7477a08a83f7b7f221c3c9f4b6764736f6c63430008180033000000000000000000000000bfff8b5c308cbb00a114ef2651f9ec7819b69557"
        },
        {
          "transactionType": "CREATE",
          "address": "0x6663db2c52c57244a3b3f5173ea1df808a9cab21",
          "initCode": "0x6101608060405234620002055760e08162002269803803809162000024828562000225565b83398101031262000205576200003a816200025d565b62000048602083016200025d565b9162000057604082016200025d565b60608201519360808301519360c060a0850151940151918215158303620002055733608052600280546001600160a01b0319166001600160a01b0384811691821790925560a083905260c09590955261010097885261012096875261014095865260e08490529362000197575b5050505060405191611ff6938462000273853960805184818161047501526105e9015260a05184818161041e01528181610546015281816107ed01528181610c9701528181610f1e01528181611070015281816115be0152611b3f015260c05184818161017d0152818161067601528181610ffc015281816113da0152611cb9015260e0518481816104bc0152818161062f015281816114e301526119c901525183818161169e0152611a7701525182818161161601528181611a9c0152611ad20152518181816101fb0152611a430152f35b602092156200021d57505b6004604051809481936318160ddd60e01b8352165afa90811562000212575f91620001d6575b506003555f808080620000c4565b90506020813d60201162000209575b81620001f46020938362000225565b810103126200020557515f620001c8565b5f80fd5b3d9150620001e5565b6040513d5f823e3d90fd5b9050620001a2565b601f909101601f19168101906001600160401b038211908210176200024957604052565b634e487b7160e01b5f52604160045260245ffd5b51906001600160a01b0382168203620002055756fe6080604090808252600480361015610015575f80fd5b5f3560e01c91826306fdde03146117ab575081630902f1ac1461175a578163095ea7b3146116c15781630c1e3847146116875781630dfe16811461165f57816318160ddd146116395781631e2f9931146115ff57816322950746146114c757816323b872dd146113a3578163313ce567146113885781633644e515146112d1578163378dc3dc146112b35781636a62784214610fb75781636d9a640a14610bbf57816370a0823114610b8c5781637464fc3d14610b6e57816375172a8b14610b315781637ecebe0014610afe57816389afcb441461077857816395d89b4114610735578163975f8f4614610719578163a9059cbb14610654578163ae0f15e014610618578163c45a0155146105d5578163c4d66de81461044d578163d21220a71461040a578163d505accf1461021e57508063d9f51a43146101e4578063dd62ed3e146101b05763f29ebf611461016a575f80fd5b346101ac575f3660031901126101ac57517f00000000000000000000000000000000000000000000000000000000000000006001600160a01b03168152602090f35b5f80fd5b50346101ac57806003193601126101ac576020906101dd6101cf61182c565b6101d7611842565b90611b63565b9051908152f35b50346101ac575f3660031901126101ac57602090517f00000000000000000000000000000000000000000000000000000000000000008152f35b82346101ac5760e03660031901126101ac5761023861182c565b90610241611842565b60443591606435926084359160ff831683036101ac576001600160a01b03938416956e22d473030f116ddee9f6b43ac78ba3871883191517156103fe5781519461028a86611888565b600886526704f7369746f204c560c41b6020809701528642116103f2578251911695869465383775081901600e52855f5260c087600c20938454937f8b73c3c69bb8fe3d512ecc4cf759cc79239f7b179b0ffacaa9a75d522b39400f8252848a83017f432403850d0c026bcf6eb0567acc5f7ed78017e4821d92ee99418a1819fb058981528d8985017fc89efdaa54c0f20c7adf612882df0950f5a951637e0307cdcb4c672f298b8bc68152606086019c8d469052608087019330855260a08820602e527f6e71edae12b1b97f4d1f60370fef10105fa2faae0126114a169c64845d6126c988525252898b525260a082015220604e526042602c205f5260ff16865260a435835260c435606052858060805f60015afa90873d51036103e6577f8c5be1e5ebec7d5bd14f71427d1e84f3dd0314c0f7b2291e5b200ac8c7c3b92597989950019055866303faf4f960a51b1790526034602c2055a3005b8963ddafbaef5f52601cfd5b88631a15a3cc5f52601cfd5b87633f68539a5f52601cfd5b82346101ac575f3660031901126101ac57517f00000000000000000000000000000000000000000000000000000000000000006001600160a01b03168152602090f35b9050346101ac576020806003193601126101ac5761046961182c565b6001600160a01b0392907f0000000000000000000000000000000000000000000000000000000000000000841633036105a45760025484811661056b576001600160a01b031916848216176002558291907f00000000000000000000000000000000000000000000000000000000000000001561054357905b85516318160ddd60e01b81529485928391165afa92831561053a57505f9261050c575b6003839055005b90809250813d8311610533575b61052381836118a4565b810103126101ac57515f80610505565b503d610519565b513d5f823e3d90fd5b507f0000000000000000000000000000000000000000000000000000000000000000906104e2565b855162461bcd60e51b815280840185905260136024820152721053149150511657d253925512505312569151606a1b6044820152606490fd5b5060649184519162461bcd60e51b8352820152600c60248201526b15539055551213d49256915160a21b6044820152fd5b82346101ac575f3660031901126101ac57517f00000000000000000000000000000000000000000000000000000000000000006001600160a01b03168152602090f35b82346101ac575f3660031901126101ac57602090517f000000000000000000000000000000000000000000000000000000000000000015158152f35b82346101ac57806003193601126101ac5761066d61182c565b602435906106b47f00000000000000000000000000000000000000000000000000000000000000006001600160a01b0390811690831690811490811561070f575b506118f7565b6387a211a2600c52335f5260209384600c2090815490818511610704575083900390555f5282600c208181540190558252600c5160601c335f80516020611fa18339815191528480a35160018152f35b63f4d678b85f52601cfd5b90503014866106ae565b82346101ac575f3660031901126101ac576020906101dd6119c7565b82346101ac575f3660031901126101ac5780516107749161075582611888565b600882526704f5349544f2d4c560c41b602083015251918291826117e5565b0390f35b9050346101ac57602090816003193601126101ac5761079561182c565b9168929eee149b4bd2126830815414610af2573081556107b36118c6565b9360018060a01b0380600254169587519685886024816370a0823160e01b94858252308c8301525afa978815610ae8575f98610ab9575b507f000000000000000000000000000000000000000000000000000000000000000090838216908a5198818a5230818b0152888a602481865afa998a15610aaf575f9a610a80575b506387a211a29384600c52305f5289600c20546001600160701b0396878c818351169201511661086191611cb4565b956805345cdf77eb68f44c9081549e8f9061087c9085611951565b9061088691611964565b9e8f9e6108939085611951565b9061089d91611964565b9d151580610a77575b15610a3457600c52305f528b600c208054808411610a2857938f8f93908f5f908f95976108fe94610903998260249d9c03905581815403905582525f80516020611fa1833981519152309183a3838d60025416611f2a565b611f2a565b898d886002541690519384809287825230868301525afa928d841561053a578b935f956109f4575b5090602491519586938492835230908301525afa9081156109ea575f916109b9575b6109579250611e90565b61099c575b50865191868352858584015216907fdccd412f0b1252819cb1fd330b93224ca42612892bb3f4f789976e6d81936496873392a33890558351928352820152f35b6109b0905f5490808260701c169116611951565b6001555f61095c565b90508782813d83116109e3575b6109d081836118a4565b810103126101ac5761095791519061094d565b503d6109c6565b8b513d5f823e3d90fd5b9450509183813d8311610a21575b610a0c81836118a4565b810103126101ac5791519189918d602461092b565b503d610a02565b8563f4d678b85f52601cfd5b8f5162461bcd60e51b81528086018e9052601d60248201527f494e53554646494349454e545f4c49515549444954595f4255524e45440000006044820152606490fd5b508d15156108a6565b9099508881813d8311610aa8575b610a9881836118a4565b810103126101ac5751985f610832565b503d610a8e565b8c513d5f823e3d90fd5b9097508581813d8311610ae1575b610ad181836118a4565b810103126101ac5751965f6107ea565b503d610ac7565b89513d5f823e3d90fd5b8263ab143c065f52601cfd5b82346101ac5760203660031901126101ac57602090610b1b61182c565b6338377508600c525f5281600c20549051908152f35b82346101ac575f3660031901126101ac575f5490516001600160701b038083168252607083901c16602082015260e09190911c6040820152606090f35b82346101ac575f3660031901126101ac576020906001549051908152f35b82346101ac5760203660031901126101ac57602090610ba961182c565b6387a211a2600c525f5281600c20549051908152f35b82346101ac5760603660031901126101ac576001600160a01b0391604435838116929091602480359282359290918686036101ac5768929eee149b4bd212689730895414610af25730895584159283158094610fae575b15610f6c57610c236118c6565b976001600160701b0394858a5116881080610f5d575b610c4290611982565b610f49575b8780610f18575b505081600254169085519384926370a0823160e01b908185523084860152848360209889935afa938415610f0e579086915f95610edd575b5082895180978193825230878301527f0000000000000000000000000000000000000000000000000000000000000000165afa938415610ed3575f94610ea4575b50610cd588878c5116611930565b831115610e9d57610cf2610cec89888d5116611930565b84611930565b995b858101610d048b89835116611930565b861115610e9657610d21610d1b8c8a845116611930565b87611930565b975b8c15801590610e8d575b15610e4b57610d3a6119c7565b612710808802888104821489151715610e39578f90610d5c84610d6293611951565b90611930565b91818a02918a8304148a151715610e39578392610d8c610d9e969593610d5c8f94610d9295611951565b90611951565b94511691511690611951565b906305f5e10091828102928184041490151715610e275710610e0157505090610dc691611e90565b825195865285015283015260608201527fd78ad95fa46c994b6551d0da85fc275fe613ce37657fb8d5e3d130840159d82260803392a3389055005b865162461bcd60e51b8152918201859052600190820152604b60f81b6044820152606490fd5b82601185634e487b7160e01b5f52525ffd5b86601189634e487b7160e01b5f52525ffd5b895162461bcd60e51b81528086018990526019818601527f494e53554646494349454e545f494e5055545f414d4f554e54000000000000006044820152606490fd5b50881515610d2d565b5f97610d23565b5f99610cf4565b9093508481813d8311610ecc575b610ebc81836118a4565b810103126101ac5751928c610cc7565b503d610eb2565b87513d5f823e3d90fd5b8281939296503d8311610f07575b610ef581836118a4565b810103126101ac57859051938e610c86565b503d610eeb565b88513d5f823e3d90fd5b610f42917f0000000000000000000000000000000000000000000000000000000000000000611f2a565b8a87610c4e565b610f5887828560025416611f2a565b610c47565b5060208a015186168910610c39565b606490601a84602088519362461bcd60e51b85528401528201527f494e53554646494349454e545f4f55545055545f414d4f554e540000000000006044820152fd5b50861515610c16565b9050346101ac57602091826003193601126101ac57610fd461182c565b9168929eee149b4bd2126890308254146112a8573082556001600160a01b03906110238583167f00000000000000000000000000000000000000000000000000000000000000008416146118f7565b61102b6118c6565b9180600254169285519388856024816370a0823160e01b9485825230898301525afa948515610ed3579089915f96611277575b506024885180958193825230888301527f0000000000000000000000000000000000000000000000000000000000000000165afa91821561126d575f9261123e575b506001600160701b03916110b78383511686611930565b94898301986110c9858b511684611930565b956110db86865116878d511690611cb4565b946805345cdf77eb68f44c9b8c549182155f146111f1575050611106611101898b611951565b611dac565b6103e71981019081116111de579b6103e8928383019283106111d3575092611174928e8e93611179989796556387a211a2600c5261dead5f5280600c20828154019055528d5f5f80516020611fa1833981519152600c5160601c9280a35b61116f821515611982565b611e38565b611e90565b6111b6575b508351918252858201527f4c209b5fc8ad50758f13e2e1088ba56a560dff690a1c6fef26394f4c03821c4f833392a238905551908152f35b6111ca905f5490808260701c169116611951565b6001555f61117e565b63e5cfe9575f52601cfd5b601183634e487b7160e01b5f525260245ffd5b6111799695949d506111749350908861121661121f61122694838f8861121691611951565b91511690611964565b948c611951565b8082101561123757505b809b611164565b9050611230565b9091508781813d8311611266575b61125681836118a4565b810103126101ac5751905f6110a0565b503d61124c565b86513d5f823e3d90fd5b8281939297503d83116112a1575b61128f81836118a4565b810103126101ac57889051945f61105e565b503d611285565b63ab143c065f52601cfd5b82346101ac575f3660031901126101ac576020906003549051908152f35b82346101ac575f3660031901126101ac57806704f7369746f204c560c41b60208093516112fd81611888565b60088152015260a081517f8b73c3c69bb8fe3d512ecc4cf759cc79239f7b179b0ffacaa9a75d522b39400f81527f432403850d0c026bcf6eb0567acc5f7ed78017e4821d92ee99418a1819fb0589848201527fc89efdaa54c0f20c7adf612882df0950f5a951637e0307cdcb4c672f298b8bc683820152466060820152306080820152209051908152f35b82346101ac575f3660031901126101ac576020905160128152f35b82346101ac5760603660031901126101ac576113bd61182c565b6113c5611842565b6001600160a01b03906044359061140a8184167f0000000000000000000000000000000000000000000000000000000000000000851681149081156114bd57506118f7565b8360601b6e22d473030f116ddee9f6b43ac78ba33303611474575b6387a211a217600c5260209586600c2090815490818511610704575083900390555f5284600c208181540190558452600c5160601c91165f80516020611fa18339815191528480a35160018152f35b33602052637f5e9f208117600c526034600c2090815491821961149a575b509050611425565b8285116114b157846387a211a29303905588611492565b886313be252b5f52601cfd5b90503014886106ae565b82346101ac575f3660031901126101ac576114e06118c6565b917f000000000000000000000000000000000000000000000000000000000000000080156115ea576001600160701b0380855116945b82156115e2576020015116905b156115ba576002546020906001600160a01b03165b84516318160ddd60e01b815293849182906001600160a01b03165afa9182156115b0575f92611579575b50926101dd916020946115736119c7565b92611bad565b9150926020823d6020116115a8575b81611595602093836118a4565b810103126101ac57905190926020611562565b3d9150611588565b83513d5f823e3d90fd5b60207f0000000000000000000000000000000000000000000000000000000000000000611538565b511690611523565b6001600160701b038060208601511694611516565b82346101ac575f3660031901126101ac57602090517f00000000000000000000000000000000000000000000000000000000000000008152f35b82346101ac575f3660031901126101ac576020906805345cdf77eb68f44c549051908152f35b82346101ac575f3660031901126101ac5760025490516001600160a01b039091168152602090f35b82346101ac575f3660031901126101ac57602090517f00000000000000000000000000000000000000000000000000000000000000008152f35b82346101ac57806003193601126101ac576116da61182c565b602435906001600160a01b0381166e22d473030f116ddee9f6b43ac78ba318821915171561174e57602080945052637f5e9f20600c52335f52806034600c20555f52602c5160601c337f8c5be1e5ebec7d5bd14f71427d1e84f3dd0314c0f7b2291e5b200ac8c7c3b925845fa35160018152f35b83633f68539a5f52601cfd5b82346101ac575f3660031901126101ac576117736118c6565b80516020808301519284015193516001600160701b039283168152919092169181019190915263ffffffff9091166040820152606090f35b8390346101ac575f3660031901126101ac57610774916117ca82611888565b600882526704f7369746f204c560c41b602083015251918291825b602080825282518183018190529093925f5b82811061181857505060409293505f838284010152601f8019910116010190565b8181018601518482016040015285016117f7565b600435906001600160a01b03821682036101ac57565b602435906001600160a01b03821682036101ac57565b6060810190811067ffffffffffffffff82111761187457604052565b634e487b7160e01b5f52604160045260245ffd5b6040810190811067ffffffffffffffff82111761187457604052565b90601f8019910116810190811067ffffffffffffffff82111761187457604052565b604051906118d382611858565b8160405f546001600160701b0380821684528160701c16602084015260e01c910152565b156118fe57565b60405162461bcd60e51b815260206004820152600a602482015269149154d5149250d5115160b21b6044820152606490fd5b9190820391821161193d57565b634e487b7160e01b5f52601160045260245ffd5b8181029291811591840414171561193d57565b811561196e570490565b634e487b7160e01b5f52601260045260245ffd5b1561198957565b60405162461bcd60e51b8152602060048201526016602482015275494e53554646494349454e545f4c495155494449545960501b6044820152606490fd5b7f000000000000000000000000000000000000000000000000000000000000000015611b39576002546004906020906001600160a01b03165b6040516318160ddd60e01b815292839182906001600160a01b03165afa908115611b2e575f91611afc575b506003549080821115611af457611a4191611930565b7f00000000000000000000000000000000000000000000000000000000000000009081811015611ace57610d5c611acb92611ac67f000000000000000000000000000000000000000000000000000000000000000093611ac17f000000000000000000000000000000000000000000000000000000000000000086611930565b611951565b611964565b90565b50507f000000000000000000000000000000000000000000000000000000000000000090565b50505f611a41565b90506020813d602011611b26575b81611b17602093836118a4565b810103126101ac57515f611a2b565b3d9150611b0a565b6040513d5f823e3d90fd5b600460207f0000000000000000000000000000000000000000000000000000000000000000611a00565b906001600160a01b0381166e22d473030f116ddee9f6b43ac78ba314611b9957602052637f5e9f20600c525f526034600c205490565b50505f1990565b9190820180921161193d57565b91908115611cac5781831015611c6d57611bd183611bcb8382611951565b93611930565b6127109485039085821161193d578181029181159183041417850215611c5957611c0085611c07920485611ba0565b9383611964565b03611c6657670de0b6b3a764000090828282029183818404149015170215611c59578280910482810292818404149015170215611c595704816126de9182810292818404149015170215611c59570490565b63ad251c275f526004601cfd5b5050505f90565b9192505081670de0b6b3a76400009182810292818404149015170215611c5957046126de80820290612710928391818404149015170215611c59570490565b505050505f90565b6001547f00000000000000000000000000000000000000000000000000000000000000006001600160a01b0381161580159594919390611d9c5782611cfa575b50505050565b611d10916001600160701b038091169116611951565b818111611d1e575b80611cf4565b611d2a611d3091611dac565b91611dac565b906805345cdf77eb68f44c54828211611d4a575b50611d18565b611d5890610d8c8484611930565b9060058102908082046005149015171561193d57611d7f92611d7991611ba0565b90611964565b80611d8c575b8080611d44565b611d9591611e38565b5f80611d85565b50509050611da657565b5f600155565b8070ffffffffffffffffffffffffffffffffff1060071b81811c68ffffffffffffffffff1060061b1781811c64ffffffffff1060051b1781811c62ffffff1060041b1760019060b56201000084831c0191831c1b0260121c80830401811c80830401811c80830401811c80830401811c80830401811c80830401811c80830401901c8080920410900390565b6805345cdf77eb68f44c805490838201918210611e8357556387a211a2600c525f526020600c20818154019055602052600c5160601c5f5f80516020611fa1833981519152602080a3565b63e5cfe9575f526004601cfd5b7f1c411e9a96e071241c2f21f7726b17ae89e3cab4c78be50e062b03a9fffbbad191611ec6611ec0604093611f7b565b91611f7b565b90825191611ed383611858565b6001600160701b038092169283815282821660208201528463ffffffff42169101528263ffffffff60e01b4260e01b16916001600160701b0360701b9060701b161717805f55835192835260701c166020820152a1565b919060145260345263a9059cbb60601b5f5260205f6044601082855af1908160015f51141615611f5d575b50505f603452565b3b153d171015611f6e575f80611f55565b6390b8ec185f526004601cfd5b600160701b811015611f93576001600160701b031690565b6335278d125f526004601cfdfeddf252ad1be2c89b69c2b068fc378daa952ba7f163c4a11628f55a4df523b3efa2646970667358221220fdb5fbf289eb1e5b7dd0d0bb0ad1679b2c4177e6a7babcf81971eea4c3862dfd64736f6c634300081800330000000000000000000000000000000000000000000000000000000000000000000000000000000000000000696969696969696969696969696969696969696900000000000000000000000050093862f0ddc6e1acbfcc941bf097416aa1edc100000000000000000000000000000000000000000000000000000000000026ac000000000000000000000000000000000000000000000000000000000000001e00000000000000000000000000000000000000000000000000000000000186a00000000000000000000000000000000000000000000000000000000000000001"
        },
        {
          "transactionType": "CREATE",
          "address": "0x60e519378ca2b039e68ef198fb614e4db494b5f8",
          "initCode": "0x6080604052346200037c5762000d9c803803806200001d8162000380565b9283398101906080818303126200037c5780516001600160401b03908181116200037c57836200004f918401620003a6565b60209384840151908382116200037c576200006c918501620003a6565b604084015160609094015192906001600160a01b03841684036200037c5782518281116200029a575f54906001948583811c9316801562000371575b898410146200027b578190601f938481116200031e575b508990848311600114620002ba575f92620002ae575b50505f19600383901b1c191690851b175f555b81519283116200029a578354918483811c931680156200028f575b888410146200027b57828285941162000226575b5087918311600114620001c2575f92620001b6575b50505f19600383901b1c191690821b1790555b6805345cdf77eb68f44c805490838201918210620001a957556387a211a2600c525f5281600c2081815401905581525f7fddf252ad1be2c89b69c2b068fc378daa952ba7f163c4a11628f55a4df523b3ef600c5160601c9280a36040516109859081620004178239f35b63e5cfe9575f526004601cfd5b015190505f806200012c565b90849350601f19831691845f52885f20925f5b8a8282106200020f5750508411620001f6575b505050811b0190556200013f565b01515f1960f88460031b161c191690555f8080620001e8565b8385015186558897909501949384019301620001d5565b90919250845f52875f208380860160051c8201928a871062000271575b91869588929594930160051c01915b8281106200026257505062000117565b5f815586955087910162000252565b9250819262000243565b634e487b7160e01b5f52602260045260245ffd5b92607f169262000103565b634e487b7160e01b5f52604160045260245ffd5b015190505f80620000d5565b90879350601f198316915f80528b5f20925f5b8d828210620003075750508411620002ee575b505050811b015f55620000e8565b01515f1960f88460031b161c191690555f8080620002e0565b8385015186558b97909501949384019301620002cd565b9091505f8052895f208480850160051c8201928c861062000367575b918991869594930160051c01915b82811062000358575050620000bf565b5f815585945089910162000348565b925081926200033a565b92607f1692620000a8565b5f80fd5b6040519190601f01601f191682016001600160401b038111838210176200029a57604052565b919080601f840112156200037c5782516001600160401b0381116200029a57602090620003dc601f8201601f1916830162000380565b928184528282870101116200037c575f5b818110620004025750825f9394955001015290565b8581018301518482018401528201620003ed56fe604060808152600480361015610013575f80fd5b5f3560e01c90816306fdde0314610779578163095ea7b3146106e057816318160ddd146106ba57816323b872dd146105c6578163313ce567146105ab5781633644e5151461052457816342966c68146104b457816370a08231146104815781637ecebe001461044e57816395d89b411461032c578163a9059cbb146102a1578163d505accf146100e3575063dd62ed3e146100ac575f80fd5b346100df57806003193601126100df576020906100d86100ca6107e4565b6100d26107fa565b90610912565b9051908152f35b5f80fd5b82346100df5760e03660031901126100df576100fd6107e4565b906101066107fa565b9060443592606435936084359260ff841684036100df576001600160a01b03948516956e22d473030f116ddee9f6b43ac78ba3871883191517156102955761014c610810565b948551602080970120908242116102895760c0978451961697889665383775081901600e52875f5288600c2094855480957f8b73c3c69bb8fe3d512ecc4cf759cc79239f7b179b0ffacaa9a75d522b39400f84528b84019081528d8985017fc89efdaa54c0f20c7adf612882df0950f5a951637e0307cdcb4c672f298b8bc68152606086019c8d469052608087019330855260a08820602e527f6e71edae12b1b97f4d1f60370fef10105fa2faae0126114a169c64845d6126c988525252898b525260a082015220604e526042602c205f5260ff16865260a435835260c435606052858060805f60015afa90873d510361027d577f8c5be1e5ebec7d5bd14f71427d1e84f3dd0314c0f7b2291e5b200ac8c7c3b92597989950019055866303faf4f960a51b1790526034602c2055a3005b8963ddafbaef5f52601cfd5b89631a15a3cc5f52601cfd5b87633f68539a5f52601cfd5b82346100df57806003193601126100df576102ba6107e4565b602435906387a211a2600c52335f5260209384600c2090815490818511610321575083900390555f5282600c208181540190558252600c5160601c337fddf252ad1be2c89b69c2b068fc378daa952ba7f163c4a11628f55a4df523b3ef8480a35160018152f35b63f4d678b85f52601cfd5b82346100df575f3660031901126100df578051905f60018054908160011c9060018316928315610444575b60209384841081146104315783885290811561041557506001146103bf575b505050829003601f01601f191682019267ffffffffffffffff8411838510176103ac57508291826103a892528261079d565b0390f35b604190634e487b7160e01b5f525260245ffd5b60015f908152929350837fb10e2d527612073b26eecdfd717e6a320cf44b4afac2b0732d9fcbe2b7fa0cf65b8385106104015750505050830101848080610376565b8054888601830152930192849082016103eb565b60ff1916878501525050151560051b8401019050848080610376565b602289634e487b7160e01b5f525260245ffd5b91607f1691610357565b82346100df5760203660031901126100df5760209061046b6107e4565b6338377508600c525f5281600c20549051908152f35b82346100df5760203660031901126100df5760209061049e6107e4565b6387a211a2600c525f5281600c20549051908152f35b346100df5760203660031901126100df578035906387a211a2600c52335f526020600c2090815490818411610321575082900390556805345cdf77eb68f44c8181540390555f525f337fddf252ad1be2c89b69c2b068fc378daa952ba7f163c4a11628f55a4df523b3ef602083a3005b82346100df575f3660031901126100df5760209060a0610542610810565b8381519101208251907f8b73c3c69bb8fe3d512ecc4cf759cc79239f7b179b0ffacaa9a75d522b39400f8252848201527fc89efdaa54c0f20c7adf612882df0950f5a951637e0307cdcb4c672f298b8bc683820152466060820152306080820152209051908152f35b82346100df575f3660031901126100df576020905160128152f35b82346100df5760603660031901126100df576105e06107e4565b6105e86107fa565b604435908260601b6e22d473030f116ddee9f6b43ac78ba33303610671575b6387a211a217600c5260209485600c2090815490818511610321575083900390555f52600c8481208054830190559084525160601c906001600160a01b03167fddf252ad1be2c89b69c2b068fc378daa952ba7f163c4a11628f55a4df523b3ef8480a35160018152f35b33602052637f5e9f208117600c526034600c20908154918219610697575b509050610607565b8285116106ae57846387a211a2930390558761068f565b876313be252b5f52601cfd5b82346100df575f3660031901126100df576020906805345cdf77eb68f44c549051908152f35b82346100df57806003193601126100df576106f96107e4565b602435906001600160a01b0381166e22d473030f116ddee9f6b43ac78ba318821915171561076d57602080945052637f5e9f20600c52335f52806034600c20555f52602c5160601c337f8c5be1e5ebec7d5bd14f71427d1e84f3dd0314c0f7b2291e5b200ac8c7c3b925845fa35160018152f35b83633f68539a5f52601cfd5b82346100df575f3660031901126100df576103a890610796610810565b9051918291825b602080825282518183018190529093925f5b8281106107d057505060409293505f838284010152601f8019910116010190565b8181018601518482016040015285016107af565b600435906001600160a01b03821682036100df57565b602435906001600160a01b03821682036100df57565b604051905f805460018160011c9060018316928315610908575b60209384841081146108f4578388529081156108d85750600114610884575b505050829003601f01601f1916820167ffffffffffffffff81118382101761087057604052565b634e487b7160e01b5f52604160045260245ffd5b5f808052929350837f290decd9548b62a8d60345a988386fc84ba6bc95484008f6362f93160ef3e5635b8385106108c457505050508301015f8080610849565b8054888601830152930192849082016108ae565b60ff1916878501525050151560051b84010190505f8080610849565b634e487b7160e01b5f52602260045260245ffd5b91607f169161082a565b906001600160a01b0381166e22d473030f116ddee9f6b43ac78ba31461094857602052637f5e9f20600c525f526034600c205490565b50505f199056fea26469706673582212201139f12d0b2dc498254f7b920ead55793c5e5288d2cc59b0e83d1456e45744d964736f6c63430008180033000000000000000000000000000000000000000000000000000000000000008000000000000000000000000000000000000000000000000000000000000000c00000000000000000000000000000000000000000033b2e3c9fd0803ce80000000000000000000000000000006663db2c52c57244a3b3f5173ea1df808a9cab21000000000000000000000000000000000000000000000000000000000000000954657374546f6b656e000000000000000000000000000000000000000000000000000000000000000000000000000000000000000000000000000000000000045445535400000000000000000000000000000000000000000000000000000000"
        }
      ],
      "isFixedGasLimit": false
    },
    {
      "hash": "0x6dc58341e94a2d5668dd3a46da400087af5d565bde6789ba89d9989cdc14fac3",
      "transactionType": "CALL",
      "contractName": null,
      "contractAddress": "0x6969696969696969696969696969696969696969",
      "function": "approve(address,uint256)",
      "arguments": [
        "0xFdcF2Ca5342B4b1b25dBD566A1bb4f459205d495",
        "1000000000000000000"
      ],
      "transaction": {
        "from": "0x37a9b9df87b2cd3fc73a9c0ad10b4aff2d52bcc5",
        "to": "0x6969696969696969696969696969696969696969",
        "gas": "0xf858",
        "value": "0x0",
        "input": "0x095ea7b3000000000000000000000000fdcf2ca5342b4b1b25dbd566a1bb4f459205d4950000000000000000000000000000000000000000000000000de0b6b3a7640000",
        "nonce": "0x927",
        "chainId": "0x138c5"
      },
      "additionalContracts": [],
      "isFixedGasLimit": false
    },
    {
      "hash": "0x0a721aedbd4b3b94fe47678f61e3ca75161dd5cbd12cd42fd7cda4d425a22bd7",
      "transactionType": "CALL",
      "contractName": null,
      "contractAddress": "0xfdcf2ca5342b4b1b25dbd566a1bb4f459205d495",
      "function": "swapExactETHForTokens(address,uint256,address,uint256)",
      "arguments": [
        "0x6663DB2C52c57244a3b3F5173eA1Df808a9CAb21",
        "1",
        "0x37A9B9Df87B2cd3fC73A9C0Ad10B4Aff2D52bCc5",
        "1754421584"
      ],
      "transaction": {
        "from": "0x37a9b9df87b2cd3fc73a9c0ad10b4aff2d52bcc5",
        "to": "0xfdcf2ca5342b4b1b25dbd566a1bb4f459205d495",
        "gas": "0x2ed27",
        "value": "0xde0b6b3a7640000",
        "input": "0x708789260000000000000000000000006663db2c52c57244a3b3f5173ea1df808a9cab21000000000000000000000000000000000000000000000000000000000000000100000000000000000000000037a9b9df87b2cd3fc73a9c0ad10b4aff2d52bcc50000000000000000000000000000000000000000000000000000000068925950",
        "nonce": "0x928",
        "chainId": "0x138c5"
      },
      "additionalContracts": [],
      "isFixedGasLimit": false
    },
    {
      "hash": "0x3d31b02f22fe65e8aafe12d8305354e6e245221cfe968b677ee033a109c5c0da",
      "transactionType": "CALL",
      "contractName": "FeeRouter",
      "contractAddress": "0x50093862f0ddc6e1acbfcc941bf097416aa1edc1",
      "function": "collectFees()",
      "arguments": [],
      "transaction": {
        "from": "0x37a9b9df87b2cd3fc73a9c0ad10b4aff2d52bcc5",
        "to": "0x50093862f0ddc6e1acbfcc941bf097416aa1edc1",
        "gas": "0x460d4",
        "value": "0x0",
        "input": "0xc8796572",
        "nonce": "0x929",
        "chainId": "0x138c5"
      },
      "additionalContracts": [],
      "isFixedGasLimit": false
    }
  ],
  "receipts": [
    {
      "status": "0x1",
      "cumulativeGasUsed": "0x132a14",
      "logs": [
        {
          "address": "0x6969696969696969696969696969696969696969",
          "topics": [
            "0xddf252ad1be2c89b69c2b068fc378daa952ba7f163c4a11628f55a4df523b3ef",
            "0x0000000000000000000000000000000000000000000000000000000000000000",
            "0x00000000000000000000000037a9b9df87b2cd3fc73a9c0ad10b4aff2d52bcc5"
          ],
          "data": "0x0000000000000000000000000000000000000000000000001bc16d674ec80000",
          "blockHash": "0x64be094da3b888ce5fb282eb86de9c42dcdb499fe736a83a9ee9bf71aeb5395c",
          "blockNumber": "0x76b4da",
          "blockTimestamp": "0x689258fa",
          "transactionHash": "0x174ed0f31c1c8030fadd30f178841c842c6eaca96a33ce81bf07f51dc30ca600",
          "transactionIndex": "0x3",
          "logIndex": "0x1c",
          "removed": false
        }
      ],
      "logsBloom": "0x00000000000000000000000000000000000000000000000000000000000000000000000000000000000000000000000000000000000000000000000000000000000000000000000000000008000000000000000000000000000000000000000000000000020000000000000000000800000000000010000002000010000000000000000000000000000000000000000000000000000000000000000000000000000000000000000000800000000000000000000000000000000000000000000000000002000000000000000000000000000000000000000000000004000020101000000000000000000000000000000000000000000000000000000000000000",
      "type": "0x2",
      "transactionHash": "0x174ed0f31c1c8030fadd30f178841c842c6eaca96a33ce81bf07f51dc30ca600",
      "transactionIndex": "0x3",
      "blockHash": "0x64be094da3b888ce5fb282eb86de9c42dcdb499fe736a83a9ee9bf71aeb5395c",
      "blockNumber": "0x76b4da",
      "gasUsed": "0x8190",
      "effectiveGasPrice": "0x4a817c807",
      "from": "0x37a9b9df87b2cd3fc73a9c0ad10b4aff2d52bcc5",
      "to": "0x6969696969696969696969696969696969696969",
      "contractAddress": null
    },
    {
      "status": "0x1",
      "cumulativeGasUsed": "0x13dde1",
      "logs": [
        {
          "address": "0x6969696969696969696969696969696969696969",
          "topics": [
            "0x8c5be1e5ebec7d5bd14f71427d1e84f3dd0314c0f7b2291e5b200ac8c7c3b925",
            "0x00000000000000000000000037a9b9df87b2cd3fc73a9c0ad10b4aff2d52bcc5",
            "0x000000000000000000000000ce0bcc4958be4301e468495af369430ecdb84476"
          ],
          "data": "0x0000000000000000000000000000000000000000000000001bc16d674ec80000",
          "blockHash": "0x64be094da3b888ce5fb282eb86de9c42dcdb499fe736a83a9ee9bf71aeb5395c",
          "blockNumber": "0x76b4da",
          "blockTimestamp": "0x689258fa",
          "transactionHash": "0xa554af6c27353ba36d4339925a0d295304ea1342b4e10beece236e61aa6e9603",
          "transactionIndex": "0x4",
          "logIndex": "0x1d",
          "removed": false
        }
      ],
      "logsBloom": "0x00000000000000000000000000000000800000000000400000000000000000000000000000000000000000000000000000000000000000000000000000200000000000000000000000000000000000000000000000000000000000000000000000000000000000000000000000000000000000000010000002000000000000000000000000000000000000000000000000000000000000000000000000000000020000000000000000800000000000000000000000000000000000000000000000000000000000000000000000000000000000000000000002000004000000101010000000000000000000000000000000000000000000000000000000000000",
      "type": "0x2",
      "transactionHash": "0xa554af6c27353ba36d4339925a0d295304ea1342b4e10beece236e61aa6e9603",
      "transactionIndex": "0x4",
      "blockHash": "0x64be094da3b888ce5fb282eb86de9c42dcdb499fe736a83a9ee9bf71aeb5395c",
      "blockNumber": "0x76b4da",
      "gasUsed": "0xb3cd",
      "effectiveGasPrice": "0x4a817c807",
      "from": "0x37a9b9df87b2cd3fc73a9c0ad10b4aff2d52bcc5",
      "to": "0x6969696969696969696969696969696969696969",
      "contractAddress": null
    },
    {
      "status": "0x1",
      "cumulativeGasUsed": "0x45b5c9",
      "logs": [
        {
          "address": "0x60e519378ca2b039e68ef198fb614e4db494b5f8",
          "topics": [
            "0xddf252ad1be2c89b69c2b068fc378daa952ba7f163c4a11628f55a4df523b3ef",
            "0x0000000000000000000000000000000000000000000000000000000000000000",
            "0x0000000000000000000000006663db2c52c57244a3b3f5173ea1df808a9cab21"
          ],
          "data": "0x0000000000000000000000000000000000000000033b2e3c9fd0803ce8000000",
          "blockHash": "0x64be094da3b888ce5fb282eb86de9c42dcdb499fe736a83a9ee9bf71aeb5395c",
          "blockNumber": "0x76b4da",
          "blockTimestamp": "0x689258fa",
          "transactionHash": "0x61deb56ac1957e1c22f8ec15ab3689016aa47f555acd8fc49f6346f932496994",
          "transactionIndex": "0x5",
          "logIndex": "0x1e",
          "removed": false
        },
        {
          "address": "0x6969696969696969696969696969696969696969",
          "topics": [
            "0xddf252ad1be2c89b69c2b068fc378daa952ba7f163c4a11628f55a4df523b3ef",
            "0x00000000000000000000000037a9b9df87b2cd3fc73a9c0ad10b4aff2d52bcc5",
            "0x0000000000000000000000006663db2c52c57244a3b3f5173ea1df808a9cab21"
          ],
          "data": "0x0000000000000000000000000000000000000000000000000de0b6b3a7640000",
          "blockHash": "0x64be094da3b888ce5fb282eb86de9c42dcdb499fe736a83a9ee9bf71aeb5395c",
          "blockNumber": "0x76b4da",
          "blockTimestamp": "0x689258fa",
          "transactionHash": "0x61deb56ac1957e1c22f8ec15ab3689016aa47f555acd8fc49f6346f932496994",
          "transactionIndex": "0x5",
          "logIndex": "0x1f",
          "removed": false
        },
        {
          "address": "0x6663db2c52c57244a3b3f5173ea1df808a9cab21",
          "topics": [
            "0xddf252ad1be2c89b69c2b068fc378daa952ba7f163c4a11628f55a4df523b3ef",
            "0x0000000000000000000000000000000000000000000000000000000000000000",
            "0x000000000000000000000000000000000000000000000000000000000000dead"
          ],
          "data": "0x00000000000000000000000000000000000000000000000000000000000003e8",
          "blockHash": "0x64be094da3b888ce5fb282eb86de9c42dcdb499fe736a83a9ee9bf71aeb5395c",
          "blockNumber": "0x76b4da",
          "blockTimestamp": "0x689258fa",
          "transactionHash": "0x61deb56ac1957e1c22f8ec15ab3689016aa47f555acd8fc49f6346f932496994",
          "transactionIndex": "0x5",
          "logIndex": "0x20",
          "removed": false
        },
        {
          "address": "0x6663db2c52c57244a3b3f5173ea1df808a9cab21",
          "topics": [
            "0xddf252ad1be2c89b69c2b068fc378daa952ba7f163c4a11628f55a4df523b3ef",
            "0x0000000000000000000000000000000000000000000000000000000000000000",
            "0x00000000000000000000000050093862f0ddc6e1acbfcc941bf097416aa1edc1"
          ],
          "data": "0x0000000000000000000000000000000000000000000006b2462efe9490d0944c",
          "blockHash": "0x64be094da3b888ce5fb282eb86de9c42dcdb499fe736a83a9ee9bf71aeb5395c",
          "blockNumber": "0x76b4da",
          "blockTimestamp": "0x689258fa",
          "transactionHash": "0x61deb56ac1957e1c22f8ec15ab3689016aa47f555acd8fc49f6346f932496994",
          "transactionIndex": "0x5",
          "logIndex": "0x21",
          "removed": false
        },
        {
          "address": "0x6663db2c52c57244a3b3f5173ea1df808a9cab21",
          "topics": [
            "0x1c411e9a96e071241c2f21f7726b17ae89e3cab4c78be50e062b03a9fffbbad1"
          ],
          "data": "0x0000000000000000000000000000000000000000033b2e3c9fd0803ce80000000000000000000000000000000000000000000000000000000de0b6b3a7640000",
          "blockHash": "0x64be094da3b888ce5fb282eb86de9c42dcdb499fe736a83a9ee9bf71aeb5395c",
          "blockNumber": "0x76b4da",
          "blockTimestamp": "0x689258fa",
          "transactionHash": "0x61deb56ac1957e1c22f8ec15ab3689016aa47f555acd8fc49f6346f932496994",
          "transactionIndex": "0x5",
          "logIndex": "0x22",
          "removed": false
        },
        {
          "address": "0x6663db2c52c57244a3b3f5173ea1df808a9cab21",
          "topics": [
            "0x4c209b5fc8ad50758f13e2e1088ba56a560dff690a1c6fef26394f4c03821c4f",
            "0x000000000000000000000000ce0bcc4958be4301e468495af369430ecdb84476"
          ],
          "data": "0x0000000000000000000000000000000000000000033b2e3c9fd0803ce80000000000000000000000000000000000000000000000000000000de0b6b3a7640000",
          "blockHash": "0x64be094da3b888ce5fb282eb86de9c42dcdb499fe736a83a9ee9bf71aeb5395c",
          "blockNumber": "0x76b4da",
          "blockTimestamp": "0x689258fa",
          "transactionHash": "0x61deb56ac1957e1c22f8ec15ab3689016aa47f555acd8fc49f6346f932496994",
          "transactionIndex": "0x5",
          "logIndex": "0x23",
          "removed": false
        },
        {
          "address": "0x50093862f0ddc6e1acbfcc941bf097416aa1edc1",
          "topics": [
            "0x0f91882b50d9330af0b1d4998e6af7f2eaee90ce7e77ea54fea089af166d021d"
          ],
          "data": "0x0000000000000000000000006663db2c52c57244a3b3f5173ea1df808a9cab210000000000000000000000000000000000000000000006b2462efe9490d0944c0000000000000000000000000000000000000000000000000000000000000000",
          "blockHash": "0x64be094da3b888ce5fb282eb86de9c42dcdb499fe736a83a9ee9bf71aeb5395c",
          "blockNumber": "0x76b4da",
          "blockTimestamp": "0x689258fa",
          "transactionHash": "0x61deb56ac1957e1c22f8ec15ab3689016aa47f555acd8fc49f6346f932496994",
          "transactionIndex": "0x5",
          "logIndex": "0x24",
          "removed": false
        },
        {
          "address": "0xce0bcc4958be4301e468495af369430ecdb84476",
          "topics": [
            "0xfbc2208107bf7df90abee76bf0fc7ccd04797858f418a4794797239da28cf0a3",
            "0x00000000000000000000000060e519378ca2b039e68ef198fb614e4db494b5f8",
            "0x0000000000000000000000006663db2c52c57244a3b3f5173ea1df808a9cab21",
            "0x00000000000000000000000050093862f0ddc6e1acbfcc941bf097416aa1edc1"
          ],
          "data": "0x000000000000000000000000000000000000000000000000000000000000006000000000000000000000000000000000000000000000000000000000000000a00000000000000000000000000000000000000000033b2e3c9fd0803ce8000000000000000000000000000000000000000000000000000000000000000000000954657374546f6b656e000000000000000000000000000000000000000000000000000000000000000000000000000000000000000000000000000000000000045445535400000000000000000000000000000000000000000000000000000000",
          "blockHash": "0x64be094da3b888ce5fb282eb86de9c42dcdb499fe736a83a9ee9bf71aeb5395c",
          "blockNumber": "0x76b4da",
          "blockTimestamp": "0x689258fa",
          "transactionHash": "0x61deb56ac1957e1c22f8ec15ab3689016aa47f555acd8fc49f6346f932496994",
          "transactionIndex": "0x5",
          "logIndex": "0x25",
          "removed": false
        }
      ],
      "logsBloom": "0x00000000004010000000000880000000800000000000400000000000040021000800000000000001000800000000000000000000000000000000080100000000000000000000000400008008000000000000000000002000000000000000000040000000020000000000000000108802000000000058000002000010000000000000000000000000000014000000000000000000000000880000000000000000000001000000000000800000000100000000000000000000000000000000000000000402000000000000000020020002000000000000801002000004000020101000012001000000000000000000000000000000000000000000000000000000",
      "type": "0x2",
      "transactionHash": "0x61deb56ac1957e1c22f8ec15ab3689016aa47f555acd8fc49f6346f932496994",
      "transactionIndex": "0x5",
      "blockHash": "0x64be094da3b888ce5fb282eb86de9c42dcdb499fe736a83a9ee9bf71aeb5395c",
      "blockNumber": "0x76b4da",
      "gasUsed": "0x31d7e8",
      "effectiveGasPrice": "0x4a817c807",
      "from": "0x37a9b9df87b2cd3fc73a9c0ad10b4aff2d52bcc5",
      "to": "0xce0bcc4958be4301e468495af369430ecdb84476",
      "contractAddress": null
    },
    {
      "status": "0x1",
      "cumulativeGasUsed": "0x466996",
      "logs": [
        {
          "address": "0x6969696969696969696969696969696969696969",
          "topics": [
            "0x8c5be1e5ebec7d5bd14f71427d1e84f3dd0314c0f7b2291e5b200ac8c7c3b925",
            "0x00000000000000000000000037a9b9df87b2cd3fc73a9c0ad10b4aff2d52bcc5",
            "0x000000000000000000000000fdcf2ca5342b4b1b25dbd566a1bb4f459205d495"
          ],
          "data": "0x0000000000000000000000000000000000000000000000000de0b6b3a7640000",
          "blockHash": "0x64be094da3b888ce5fb282eb86de9c42dcdb499fe736a83a9ee9bf71aeb5395c",
          "blockNumber": "0x76b4da",
          "blockTimestamp": "0x689258fa",
          "transactionHash": "0x6dc58341e94a2d5668dd3a46da400087af5d565bde6789ba89d9989cdc14fac3",
          "transactionIndex": "0x6",
          "logIndex": "0x26",
          "removed": false
        }
      ],
      "logsBloom": "0x00000000000000000000000000000000000000000000000000000000000000000000000000000000000000000000000000000000000000000000000040200000000000800000000000000000000000000000000040000000000000000000000000000000000000000000000000000000000000000010000002000000000000000000000000000000000000000000000000000000000000000000000000000000020000000000000000800000000000000000000000000000000000000000000000000000000000000000000000000000000000000000000000000004000000101010000000000000000000000000000000000000000000000000000000000000",
      "type": "0x2",
      "transactionHash": "0x6dc58341e94a2d5668dd3a46da400087af5d565bde6789ba89d9989cdc14fac3",
      "transactionIndex": "0x6",
      "blockHash": "0x64be094da3b888ce5fb282eb86de9c42dcdb499fe736a83a9ee9bf71aeb5395c",
      "blockNumber": "0x76b4da",
      "gasUsed": "0xb3cd",
      "effectiveGasPrice": "0x4a817c807",
      "from": "0x37a9b9df87b2cd3fc73a9c0ad10b4aff2d52bcc5",
      "to": "0x6969696969696969696969696969696969696969",
      "contractAddress": null
    },
    {
      "status": "0x1",
      "cumulativeGasUsed": "0x4887f6",
      "logs": [
        {
          "address": "0x6969696969696969696969696969696969696969",
          "topics": [
            "0xddf252ad1be2c89b69c2b068fc378daa952ba7f163c4a11628f55a4df523b3ef",
            "0x0000000000000000000000000000000000000000000000000000000000000000",
            "0x000000000000000000000000fdcf2ca5342b4b1b25dbd566a1bb4f459205d495"
          ],
          "data": "0x0000000000000000000000000000000000000000000000000de0b6b3a7640000",
          "blockHash": "0x64be094da3b888ce5fb282eb86de9c42dcdb499fe736a83a9ee9bf71aeb5395c",
          "blockNumber": "0x76b4da",
          "blockTimestamp": "0x689258fa",
          "transactionHash": "0x0a721aedbd4b3b94fe47678f61e3ca75161dd5cbd12cd42fd7cda4d425a22bd7",
          "transactionIndex": "0x7",
          "logIndex": "0x27",
          "removed": false
        },
        {
          "address": "0x6969696969696969696969696969696969696969",
          "topics": [
            "0xddf252ad1be2c89b69c2b068fc378daa952ba7f163c4a11628f55a4df523b3ef",
            "0x000000000000000000000000fdcf2ca5342b4b1b25dbd566a1bb4f459205d495",
            "0x0000000000000000000000006663db2c52c57244a3b3f5173ea1df808a9cab21"
          ],
          "data": "0x0000000000000000000000000000000000000000000000000de0b6b3a7640000",
          "blockHash": "0x64be094da3b888ce5fb282eb86de9c42dcdb499fe736a83a9ee9bf71aeb5395c",
          "blockNumber": "0x76b4da",
          "blockTimestamp": "0x689258fa",
          "transactionHash": "0x0a721aedbd4b3b94fe47678f61e3ca75161dd5cbd12cd42fd7cda4d425a22bd7",
          "transactionIndex": "0x7",
          "logIndex": "0x28",
          "removed": false
        },
        {
          "address": "0x60e519378ca2b039e68ef198fb614e4db494b5f8",
          "topics": [
            "0xddf252ad1be2c89b69c2b068fc378daa952ba7f163c4a11628f55a4df523b3ef",
            "0x0000000000000000000000006663db2c52c57244a3b3f5173ea1df808a9cab21",
            "0x00000000000000000000000037a9b9df87b2cd3fc73a9c0ad10b4aff2d52bcc5"
          ],
          "data": "0x00000000000000000000000000000000000000000008309dbfae6bb9a1faee41",
          "blockHash": "0x64be094da3b888ce5fb282eb86de9c42dcdb499fe736a83a9ee9bf71aeb5395c",
          "blockNumber": "0x76b4da",
          "blockTimestamp": "0x689258fa",
          "transactionHash": "0x0a721aedbd4b3b94fe47678f61e3ca75161dd5cbd12cd42fd7cda4d425a22bd7",
          "transactionIndex": "0x7",
          "logIndex": "0x29",
          "removed": false
        },
        {
          "address": "0x6663db2c52c57244a3b3f5173ea1df808a9cab21",
          "topics": [
            "0x1c411e9a96e071241c2f21f7726b17ae89e3cab4c78be50e062b03a9fffbbad1"
          ],
          "data": "0x00000000000000000000000000000000000000000332fd9ee0221483460511bf0000000000000000000000000000000000000000000000001bc16d674ec80000",
          "blockHash": "0x64be094da3b888ce5fb282eb86de9c42dcdb499fe736a83a9ee9bf71aeb5395c",
          "blockNumber": "0x76b4da",
          "blockTimestamp": "0x689258fa",
          "transactionHash": "0x0a721aedbd4b3b94fe47678f61e3ca75161dd5cbd12cd42fd7cda4d425a22bd7",
          "transactionIndex": "0x7",
          "logIndex": "0x2a",
          "removed": false
        },
        {
          "address": "0x6663db2c52c57244a3b3f5173ea1df808a9cab21",
          "topics": [
            "0xd78ad95fa46c994b6551d0da85fc275fe613ce37657fb8d5e3d130840159d822",
            "0x000000000000000000000000fdcf2ca5342b4b1b25dbd566a1bb4f459205d495",
            "0x00000000000000000000000037a9b9df87b2cd3fc73a9c0ad10b4aff2d52bcc5"
          ],
          "data": "0x00000000000000000000000000000000000000000000000000000000000000000000000000000000000000000000000000000000000000000de0b6b3a764000000000000000000000000000000000000000000000008309dbfae6bb9a1faee410000000000000000000000000000000000000000000000000000000000000000",
          "blockHash": "0x64be094da3b888ce5fb282eb86de9c42dcdb499fe736a83a9ee9bf71aeb5395c",
          "blockNumber": "0x76b4da",
          "blockTimestamp": "0x689258fa",
          "transactionHash": "0x0a721aedbd4b3b94fe47678f61e3ca75161dd5cbd12cd42fd7cda4d425a22bd7",
          "transactionIndex": "0x7",
          "logIndex": "0x2b",
          "removed": false
        },
        {
          "address": "0xfdcf2ca5342b4b1b25dbd566a1bb4f459205d495",
          "topics": [
            "0xee6fe6361d9c7821cccbff7551fd85fc649f753259a1b3ea7ea766fd3a79ee1f",
            "0x0000000000000000000000006663db2c52c57244a3b3f5173ea1df808a9cab21",
            "0x00000000000000000000000037a9b9df87b2cd3fc73a9c0ad10b4aff2d52bcc5"
          ],
          "data": "0x0000000000000000000000000000000000000000000000000de0b6b3a764000000000000000000000000000000000000000000000008309dbfae6bb9a1faee41",
          "blockHash": "0x64be094da3b888ce5fb282eb86de9c42dcdb499fe736a83a9ee9bf71aeb5395c",
          "blockNumber": "0x76b4da",
          "blockTimestamp": "0x689258fa",
          "transactionHash": "0x0a721aedbd4b3b94fe47678f61e3ca75161dd5cbd12cd42fd7cda4d425a22bd7",
          "transactionIndex": "0x7",
          "logIndex": "0x2c",
          "removed": false
        }
      ],
      "logsBloom": "0x00200000000000000000000080000000000000000000000000000000000000000800000000000000000000000000000000000000002000000000080040000000000000800000000000000008000020200080000040002000000000000000000040000000020000000000000000100a00000000000050000002200010000000000000000000000000000010000000000000000000000000880010004000000000000000000000000000800000000000000000000000000000000000000000000000000002000000000000000000000000000000000000001000000004000020101000000001000000000000000000000000000000000000000000000000000000",
      "type": "0x2",
      "transactionHash": "0x0a721aedbd4b3b94fe47678f61e3ca75161dd5cbd12cd42fd7cda4d425a22bd7",
      "transactionIndex": "0x7",
      "blockHash": "0x64be094da3b888ce5fb282eb86de9c42dcdb499fe736a83a9ee9bf71aeb5395c",
      "blockNumber": "0x76b4da",
      "gasUsed": "0x21e60",
      "effectiveGasPrice": "0x4a817c807",
      "from": "0x37a9b9df87b2cd3fc73a9c0ad10b4aff2d52bcc5",
      "to": "0xfdcf2ca5342b4b1b25dbd566a1bb4f459205d495",
      "contractAddress": null
    },
    {
      "status": "0x1",
      "cumulativeGasUsed": "0x4bb36c",
      "logs": [
        {
          "address": "0x6663db2c52c57244a3b3f5173ea1df808a9cab21",
          "topics": [
            "0xddf252ad1be2c89b69c2b068fc378daa952ba7f163c4a11628f55a4df523b3ef",
            "0x00000000000000000000000050093862f0ddc6e1acbfcc941bf097416aa1edc1",
            "0x0000000000000000000000006663db2c52c57244a3b3f5173ea1df808a9cab21"
          ],
          "data": "0x0000000000000000000000000000000000000000000000000000000000004a1f",
          "blockHash": "0x64be094da3b888ce5fb282eb86de9c42dcdb499fe736a83a9ee9bf71aeb5395c",
          "blockNumber": "0x76b4da",
          "blockTimestamp": "0x689258fa",
          "transactionHash": "0x3d31b02f22fe65e8aafe12d8305354e6e245221cfe968b677ee033a109c5c0da",
          "transactionIndex": "0x8",
          "logIndex": "0x2d",
          "removed": false
        },
        {
          "address": "0x6663db2c52c57244a3b3f5173ea1df808a9cab21",
          "topics": [
            "0xddf252ad1be2c89b69c2b068fc378daa952ba7f163c4a11628f55a4df523b3ef",
            "0x0000000000000000000000000000000000000000000000000000000000000000",
            "0x00000000000000000000000050093862f0ddc6e1acbfcc941bf097416aa1edc1"
          ],
          "data": "0x000000000000000000000000000000000000000000000056dd6892016954e182",
          "blockHash": "0x64be094da3b888ce5fb282eb86de9c42dcdb499fe736a83a9ee9bf71aeb5395c",
          "blockNumber": "0x76b4da",
          "blockTimestamp": "0x689258fa",
          "transactionHash": "0x3d31b02f22fe65e8aafe12d8305354e6e245221cfe968b677ee033a109c5c0da",
          "transactionIndex": "0x8",
          "logIndex": "0x2e",
          "removed": false
        },
        {
          "address": "0x6663db2c52c57244a3b3f5173ea1df808a9cab21",
          "topics": [
            "0xddf252ad1be2c89b69c2b068fc378daa952ba7f163c4a11628f55a4df523b3ef",
            "0x0000000000000000000000006663db2c52c57244a3b3f5173ea1df808a9cab21",
            "0x0000000000000000000000000000000000000000000000000000000000000000"
          ],
          "data": "0x0000000000000000000000000000000000000000000000000000000000004a1f",
          "blockHash": "0x64be094da3b888ce5fb282eb86de9c42dcdb499fe736a83a9ee9bf71aeb5395c",
          "blockNumber": "0x76b4da",
          "blockTimestamp": "0x689258fa",
          "transactionHash": "0x3d31b02f22fe65e8aafe12d8305354e6e245221cfe968b677ee033a109c5c0da",
          "transactionIndex": "0x8",
          "logIndex": "0x2f",
          "removed": false
        },
        {
          "address": "0x60e519378ca2b039e68ef198fb614e4db494b5f8",
          "topics": [
            "0xddf252ad1be2c89b69c2b068fc378daa952ba7f163c4a11628f55a4df523b3ef",
            "0x0000000000000000000000006663db2c52c57244a3b3f5173ea1df808a9cab21",
            "0x00000000000000000000000050093862f0ddc6e1acbfcc941bf097416aa1edc1"
          ],
          "data": "0x0000000000000000000000000000000000000000000000000000000021b41135",
          "blockHash": "0x64be094da3b888ce5fb282eb86de9c42dcdb499fe736a83a9ee9bf71aeb5395c",
          "blockNumber": "0x76b4da",
          "blockTimestamp": "0x689258fa",
          "transactionHash": "0x3d31b02f22fe65e8aafe12d8305354e6e245221cfe968b677ee033a109c5c0da",
          "transactionIndex": "0x8",
          "logIndex": "0x30",
          "removed": false
        },
        {
          "address": "0x6969696969696969696969696969696969696969",
          "topics": [
            "0xddf252ad1be2c89b69c2b068fc378daa952ba7f163c4a11628f55a4df523b3ef",
            "0x0000000000000000000000006663db2c52c57244a3b3f5173ea1df808a9cab21",
            "0x00000000000000000000000050093862f0ddc6e1acbfcc941bf097416aa1edc1"
          ],
          "data": "0x0000000000000000000000000000000000000000000000000000000000000001",
          "blockHash": "0x64be094da3b888ce5fb282eb86de9c42dcdb499fe736a83a9ee9bf71aeb5395c",
          "blockNumber": "0x76b4da",
          "blockTimestamp": "0x689258fa",
          "transactionHash": "0x3d31b02f22fe65e8aafe12d8305354e6e245221cfe968b677ee033a109c5c0da",
          "transactionIndex": "0x8",
          "logIndex": "0x31",
          "removed": false
        },
        {
          "address": "0x6663db2c52c57244a3b3f5173ea1df808a9cab21",
          "topics": [
            "0x1c411e9a96e071241c2f21f7726b17ae89e3cab4c78be50e062b03a9fffbbad1"
          ],
          "data": "0x00000000000000000000000000000000000000000332fd9ee02214832451008a0000000000000000000000000000000000000000000000001bc16d674ec7ffff",
          "blockHash": "0x64be094da3b888ce5fb282eb86de9c42dcdb499fe736a83a9ee9bf71aeb5395c",
          "blockNumber": "0x76b4da",
          "blockTimestamp": "0x689258fa",
          "transactionHash": "0x3d31b02f22fe65e8aafe12d8305354e6e245221cfe968b677ee033a109c5c0da",
          "transactionIndex": "0x8",
          "logIndex": "0x32",
          "removed": false
        },
        {
          "address": "0x6663db2c52c57244a3b3f5173ea1df808a9cab21",
          "topics": [
            "0xdccd412f0b1252819cb1fd330b93224ca42612892bb3f4f789976e6d81936496",
            "0x00000000000000000000000050093862f0ddc6e1acbfcc941bf097416aa1edc1",
            "0x00000000000000000000000050093862f0ddc6e1acbfcc941bf097416aa1edc1"
          ],
          "data": "0x0000000000000000000000000000000000000000000000000000000021b411350000000000000000000000000000000000000000000000000000000000000001",
          "blockHash": "0x64be094da3b888ce5fb282eb86de9c42dcdb499fe736a83a9ee9bf71aeb5395c",
          "blockNumber": "0x76b4da",
          "blockTimestamp": "0x689258fa",
          "transactionHash": "0x3d31b02f22fe65e8aafe12d8305354e6e245221cfe968b677ee033a109c5c0da",
          "transactionIndex": "0x8",
          "logIndex": "0x33",
          "removed": false
        },
        {
          "address": "0x6663db2c52c57244a3b3f5173ea1df808a9cab21",
          "topics": [
            "0xddf252ad1be2c89b69c2b068fc378daa952ba7f163c4a11628f55a4df523b3ef",
            "0x00000000000000000000000050093862f0ddc6e1acbfcc941bf097416aa1edc1",
            "0x0000000000000000000000006663db2c52c57244a3b3f5173ea1df808a9cab21"
          ],
          "data": "0x000000000000000000000000000000000000000000000056dd68920169549763",
          "blockHash": "0x64be094da3b888ce5fb282eb86de9c42dcdb499fe736a83a9ee9bf71aeb5395c",
          "blockNumber": "0x76b4da",
          "blockTimestamp": "0x689258fa",
          "transactionHash": "0x3d31b02f22fe65e8aafe12d8305354e6e245221cfe968b677ee033a109c5c0da",
          "transactionIndex": "0x8",
          "logIndex": "0x34",
          "removed": false
        },
        {
          "address": "0x6663db2c52c57244a3b3f5173ea1df808a9cab21",
          "topics": [
            "0xddf252ad1be2c89b69c2b068fc378daa952ba7f163c4a11628f55a4df523b3ef",
            "0x0000000000000000000000006663db2c52c57244a3b3f5173ea1df808a9cab21",
            "0x0000000000000000000000000000000000000000000000000000000000000000"
          ],
          "data": "0x000000000000000000000000000000000000000000000056dd68920169549763",
          "blockHash": "0x64be094da3b888ce5fb282eb86de9c42dcdb499fe736a83a9ee9bf71aeb5395c",
          "blockNumber": "0x76b4da",
          "blockTimestamp": "0x689258fa",
          "transactionHash": "0x3d31b02f22fe65e8aafe12d8305354e6e245221cfe968b677ee033a109c5c0da",
          "transactionIndex": "0x8",
          "logIndex": "0x35",
          "removed": false
        },
        {
          "address": "0x60e519378ca2b039e68ef198fb614e4db494b5f8",
          "topics": [
            "0xddf252ad1be2c89b69c2b068fc378daa952ba7f163c4a11628f55a4df523b3ef",
            "0x0000000000000000000000006663db2c52c57244a3b3f5173ea1df808a9cab21",
            "0x00000000000000000000000050093862f0ddc6e1acbfcc941bf097416aa1edc1"
          ],
          "data": "0x000000000000000000000000000000000000000000277f81ecb60ddd16d11bca",
          "blockHash": "0x64be094da3b888ce5fb282eb86de9c42dcdb499fe736a83a9ee9bf71aeb5395c",
          "blockNumber": "0x76b4da",
          "blockTimestamp": "0x689258fa",
          "transactionHash": "0x3d31b02f22fe65e8aafe12d8305354e6e245221cfe968b677ee033a109c5c0da",
          "transactionIndex": "0x8",
          "logIndex": "0x36",
          "removed": false
        },
        {
          "address": "0x6969696969696969696969696969696969696969",
          "topics": [
            "0xddf252ad1be2c89b69c2b068fc378daa952ba7f163c4a11628f55a4df523b3ef",
            "0x0000000000000000000000006663db2c52c57244a3b3f5173ea1df808a9cab21",
            "0x00000000000000000000000050093862f0ddc6e1acbfcc941bf097416aa1edc1"
          ],
          "data": "0x0000000000000000000000000000000000000000000000000156adc2953d6a21",
          "blockHash": "0x64be094da3b888ce5fb282eb86de9c42dcdb499fe736a83a9ee9bf71aeb5395c",
          "blockNumber": "0x76b4da",
          "blockTimestamp": "0x689258fa",
          "transactionHash": "0x3d31b02f22fe65e8aafe12d8305354e6e245221cfe968b677ee033a109c5c0da",
          "transactionIndex": "0x8",
          "logIndex": "0x37",
          "removed": false
        },
        {
          "address": "0x6663db2c52c57244a3b3f5173ea1df808a9cab21",
          "topics": [
            "0x1c411e9a96e071241c2f21f7726b17ae89e3cab4c78be50e062b03a9fffbbad1"
          ],
          "data": "0x0000000000000000000000000000000000000000030b7e1cf36c06a60d7fe4c00000000000000000000000000000000000000000000000001a6abfa4b98a95de",
          "blockHash": "0x64be094da3b888ce5fb282eb86de9c42dcdb499fe736a83a9ee9bf71aeb5395c",
          "blockNumber": "0x76b4da",
          "blockTimestamp": "0x689258fa",
          "transactionHash": "0x3d31b02f22fe65e8aafe12d8305354e6e245221cfe968b677ee033a109c5c0da",
          "transactionIndex": "0x8",
          "logIndex": "0x38",
          "removed": false
        },
        {
          "address": "0x6663db2c52c57244a3b3f5173ea1df808a9cab21",
          "topics": [
            "0xdccd412f0b1252819cb1fd330b93224ca42612892bb3f4f789976e6d81936496",
            "0x00000000000000000000000050093862f0ddc6e1acbfcc941bf097416aa1edc1",
            "0x00000000000000000000000050093862f0ddc6e1acbfcc941bf097416aa1edc1"
          ],
          "data": "0x000000000000000000000000000000000000000000277f81ecb60ddd16d11bca0000000000000000000000000000000000000000000000000156adc2953d6a21",
          "blockHash": "0x64be094da3b888ce5fb282eb86de9c42dcdb499fe736a83a9ee9bf71aeb5395c",
          "blockNumber": "0x76b4da",
          "blockTimestamp": "0x689258fa",
          "transactionHash": "0x3d31b02f22fe65e8aafe12d8305354e6e245221cfe968b677ee033a109c5c0da",
          "transactionIndex": "0x8",
          "logIndex": "0x39",
          "removed": false
        },
        {
          "address": "0x60e519378ca2b039e68ef198fb614e4db494b5f8",
          "topics": [
            "0xddf252ad1be2c89b69c2b068fc378daa952ba7f163c4a11628f55a4df523b3ef",
            "0x00000000000000000000000050093862f0ddc6e1acbfcc941bf097416aa1edc1",
            "0x0000000000000000000000000000000000000000000000000000000000000000"
          ],
          "data": "0x000000000000000000000000000000000000000000277f81ecb60ddd16d11bca",
          "blockHash": "0x64be094da3b888ce5fb282eb86de9c42dcdb499fe736a83a9ee9bf71aeb5395c",
          "blockNumber": "0x76b4da",
          "blockTimestamp": "0x689258fa",
          "transactionHash": "0x3d31b02f22fe65e8aafe12d8305354e6e245221cfe968b677ee033a109c5c0da",
          "transactionIndex": "0x8",
          "logIndex": "0x3a",
          "removed": false
        },
        {
          "address": "0x6969696969696969696969696969696969696969",
          "topics": [
            "0xddf252ad1be2c89b69c2b068fc378daa952ba7f163c4a11628f55a4df523b3ef",
            "0x00000000000000000000000050093862f0ddc6e1acbfcc941bf097416aa1edc1",
            "0x000000000000000000000000bfff8b5c308cbb00a114ef2651f9ec7819b69557"
          ],
          "data": "0x0000000000000000000000000000000000000000000000000156adc2953d6a21",
          "blockHash": "0x64be094da3b888ce5fb282eb86de9c42dcdb499fe736a83a9ee9bf71aeb5395c",
          "blockNumber": "0x76b4da",
          "blockTimestamp": "0x689258fa",
          "transactionHash": "0x3d31b02f22fe65e8aafe12d8305354e6e245221cfe968b677ee033a109c5c0da",
          "transactionIndex": "0x8",
          "logIndex": "0x3b",
          "removed": false
        },
        {
          "address": "0x50093862f0ddc6e1acbfcc941bf097416aa1edc1",
          "topics": [
            "0x49d512bf9cb224241c05691e73eb9fab078cf350c7dbcbcf66788f1fc0cc8b0b"
          ],
          "data": "0x000000000000000000000000000000000000000000277f81ecb60ddd16d11bca0000000000000000000000000000000000000000000000000156adc2953d6a21",
          "blockHash": "0x64be094da3b888ce5fb282eb86de9c42dcdb499fe736a83a9ee9bf71aeb5395c",
          "blockNumber": "0x76b4da",
          "blockTimestamp": "0x689258fa",
          "transactionHash": "0x3d31b02f22fe65e8aafe12d8305354e6e245221cfe968b677ee033a109c5c0da",
          "transactionIndex": "0x8",
          "logIndex": "0x3c",
          "removed": false
        }
      ],
      "logsBloom": "0x00000000004000000010000880000000000000000000000000000000000000000800000000000000000000000000000000000000000000000000084000000000000000000000000000000008000000000000000000002000000000000000000040000004020000000000000000100802000000000040000002000010010000000000000000000000000010000100080000000000000000880000000000000000000001000000004000800000000100000000000000000000000000000000000000000002000000000000000000000000000000000104001000000000000020001000010001000000000000000000000000000000000000000000000000000000",
      "type": "0x2",
      "transactionHash": "0x3d31b02f22fe65e8aafe12d8305354e6e245221cfe968b677ee033a109c5c0da",
      "transactionIndex": "0x8",
      "blockHash": "0x64be094da3b888ce5fb282eb86de9c42dcdb499fe736a83a9ee9bf71aeb5395c",
      "blockNumber": "0x76b4da",
      "gasUsed": "0x32b76",
      "effectiveGasPrice": "0x4a817c807",
      "from": "0x37a9b9df87b2cd3fc73a9c0ad10b4aff2d52bcc5",
      "to": "0x50093862f0ddc6e1acbfcc941bf097416aa1edc1",
      "contractAddress": null
    }
  ],
  "libraries": [],
  "pending": [],
  "returns": {},
  "timestamp": 1754421500,
  "chain": 80069,
  "commit": "47bed13"
}